{"contracts/SimpleLiquidityPoolV3.sol":{"SimpleLiquidityPoolV3":{"abi":[{"inputs":[{"internalType":"address","name":"_tokenA","type":"address"},{"internalType":"address","name":"_tokenB","type":"address"}],"stateMutability":"nonpayable","type":"constructor"},{"anonymous":false,"inputs":[{"indexed":true,"internalType":"address","name":"owner","type":"address"},{"indexed":true,"internalType":"address","name":"spender","type":"address"},{"indexed":false,"internalType":"uint256","name":"amount","type":"uint256"}],"name":"Approval","type":"event"},{"anonymous":false,"inputs":[{"indexed":true,"internalType":"address","name":"provider","type":"address"},{"indexed":false,"internalType":"uint256","name":"amountA","type":"uint256"},{"indexed":false,"internalType":"uint256","name":"amountB","type":"uint256"},{"indexed":false,"internalType":"uint256","name":"lpTokensMinted","type":"uint256"}],"name":"LiquidityAdded","type":"event"},{"anonymous":false,"inputs":[{"indexed":true,"internalType":"address","name":"provider","type":"address"},{"indexed":false,"internalType":"uint256","name":"amountA","type":"uint256"},{"indexed":false,"internalType":"uint256","name":"amountB","type":"uint256"},{"indexed":false,"internalType":"uint256","name":"lpTokensBurned","type":"uint256"}],"name":"LiquidityRemoved","type":"event"},{"anonymous":false,"inputs":[{"indexed":true,"internalType":"address","name":"trader","type":"address"},{"indexed":false,"internalType":"address","name":"tokenIn","type":"address"},{"indexed":false,"internalType":"uint256","name":"amountIn","type":"uint256"},{"indexed":false,"internalType":"address","name":"tokenOut","type":"address"},{"indexed":false,"internalType":"uint256","name":"amountOut","type":"uint256"}],"name":"Swap","type":"event"},{"anonymous":false,"inputs":[{"indexed":true,"internalType":"address","name":"from","type":"address"},{"indexed":true,"internalType":"address","name":"to","type":"address"},{"indexed":false,"internalType":"uint256","name":"amount","type":"uint256"}],"name":"Transfer","type":"event"},{"inputs":[],"name":"FEE_DENOMINATOR","outputs":[{"internalType":"uint256","name":"","type":"uint256"}],"stateMutability":"view","type":"function"},{"inputs":[],"name":"FEE_NUMERATOR","outputs":[{"internalType":"uint256","name":"","type":"uint256"}],"stateMutability":"view","type":"function"},{"inputs":[],"name":"MINIMUM_LIQUIDITY","outputs":[{"internalType":"uint256","name":"","type":"uint256"}],"stateMutability":"view","type":"function"},{"inputs":[{"internalType":"uint256","name":"amountA","type":"uint256"},{"internalType":"uint256","name":"amountB","type":"uint256"}],"name":"addLiquidity","outputs":[{"internalType":"uint256","name":"lpTokens","type":"uint256"}],"stateMutability":"nonpayable","type":"function"},{"inputs":[{"internalType":"address","name":"","type":"address"},{"internalType":"address","name":"","type":"address"}],"name":"allowance","outputs":[{"internalType":"uint256","name":"","type":"uint256"}],"stateMutability":"view","type":"function"},{"inputs":[{"internalType":"address","name":"spender","type":"address"},{"internalType":"uint256","name":"amount","type":"uint256"}],"name":"approve","outputs":[{"internalType":"bool","name":"","type":"bool"}],"stateMutability":"nonpayable","type":"function"},{"inputs":[{"internalType":"address","name":"","type":"address"}],"name":"balanceOf","outputs":[{"internalType":"uint256","name":"","type":"uint256"}],"stateMutability":"view","type":"function"},{"inputs":[{"internalType":"address","name":"tokenIn","type":"address"},{"internalType":"uint256","name":"amountIn","type":"uint256"}],"name":"getAmountOut","outputs":[{"internalType":"uint256","name":"amountOut","type":"uint256"}],"stateMutability":"view","type":"function"},{"inputs":[],"name":"getPrice","outputs":[{"internalType":"uint256","name":"price","type":"uint256"}],"stateMutability":"view","type":"function"},{"inputs":[{"internalType":"uint256","name":"lpTokens","type":"uint256"},{"internalType":"uint256","name":"minAmountA","type":"uint256"},{"internalType":"uint256","name":"minAmountB","type":"uint256"}],"name":"removeLiquidity","outputs":[{"internalType":"uint256","name":"amountA","type":"uint256"},{"internalType":"uint256","name":"amountB","type":"uint256"}],"stateMutability":"nonpayable","type":"function"},{"inputs":[],"name":"reserveA","outputs":[{"internalType":"uint256","name":"","type":"uint256"}],"stateMutability":"view","type":"function"},{"inputs":[],"name":"reserveB","outputs":[{"internalType":"uint256","name":"","type":"uint256"}],"stateMutability":"view","type":"function"},{"inputs":[{"internalType":"address","name":"tokenIn","type":"address"},{"internalType":"uint256","name":"amountIn","type":"uint256"},{"internalType":"uint256","name":"minAmountOut","type":"uint256"}],"name":"swap","outputs":[{"internalType":"uint256","name":"amountOut","type":"uint256"}],"stateMutability":"nonpayable","type":"function"},{"inputs":[],"name":"tokenA","outputs":[{"internalType":"address","name":"","type":"address"}],"stateMutability":"view","type":"function"},{"inputs":[],"name":"tokenB","outputs":[{"internalType":"address","name":"","type":"address"}],"stateMutability":"view","type":"function"},{"inputs":[],"name":"totalSupply","outputs":[{"internalType":"uint256","name":"","type":"uint256"}],"stateMutability":"view","type":"function"},{"inputs":[{"internalType":"address","name":"to","type":"address"},{"internalType":"uint256","name":"amount","type":"uint256"}],"name":"transfer","outputs":[{"internalType":"bool","name":"","type":"bool"}],"stateMutability":"nonpayable","type":"function"},{"inputs":[{"internalType":"address","name":"from","type":"address"},{"internalType":"address","name":"to","type":"address"},{"internalType":"uint256","name":"amount","type":"uint256"}],"name":"transferFrom","outputs":[{"internalType":"bool","name":"","type":"bool"}],"stateMutability":"nonpayable","type":"function"}],"evm":{"bytecode":{"linkReferences":{},"object":"608060405260016007553480156200001657600080fd5b506040516200160f3803806200160f833981016040819052620000399162000153565b806001600160a01b0316826001600160a01b031603620000a05760405162461bcd60e51b815260206004820152601660248201527f506f6f6c3a206964656e746963616c20746f6b656e730000000000000000000060448201526064015b60405180910390fd5b6001600160a01b03821615801590620000c157506001600160a01b03811615155b620001045760405162461bcd60e51b8152602060048201526012602482015271506f6f6c3a207a65726f206164647265737360701b604482015260640162000097565b600080546001600160a01b039384166001600160a01b031991821617909155600180549290931691161790556200018b565b80516001600160a01b03811681146200014e57600080fd5b919050565b600080604083850312156200016757600080fd5b620001728362000136565b9150620001826020840162000136565b90509250929050565b611474806200019b6000396000f3fe608060405234801561001057600080fd5b50600436106101165760003560e01c806398d5fdca116100a2578063ba9a7a5611610071578063ba9a7a5614610246578063ca706bcf1461024f578063d73792a914610246578063dc5fa6c514610262578063dd62ed3e1461026b57600080fd5b806398d5fdca146102055780639cd441da1461020d5780639f1d0f5914610220578063a9059cbb1461023357600080fd5b806323b872dd116100e957806323b872dd1461018e57806341cd47bf146101a15780635f64b55b146101aa57806370a08231146101bd578063857620e1146101dd57600080fd5b8063095ea7b31461011b5780630fc63d101461014357806318160ddd1461016e57806319e36f3b14610185575b600080fd5b61012e610129366004611211565b610296565b60405190151581526020015b60405180910390f35b600054610156906001600160a01b031681565b6040516001600160a01b03909116815260200161013a565b61017760045481565b60405190815260200161013a565b61017760035481565b61012e61019c36600461123b565b610303565b6101776103e581565b600154610156906001600160a01b031681565b6101776101cb366004611277565b60056020526000908152604090205481565b6101f06101eb366004611299565b6103c9565b6040805192835260208301919091520161013a565b61017761067d565b61017761021b3660046112c5565b6106c7565b61017761022e3660046112e7565b610a33565b61012e610241366004611211565b610d69565b6101776103e881565b61017761025d366004611211565b610d7f565b61017760025481565b61017761027936600461131a565b600660209081526000928352604080842090915290825290205481565b3360008181526006602090815260408083206001600160a01b038716808552925280832085905551919290917f8c5be1e5ebec7d5bd14f71427d1e84f3dd0314c0f7b2291e5b200ac8c7c3b925906102f19086815260200190565b60405180910390a35060015b92915050565b6001600160a01b038316600090815260066020908152604080832033845290915281205482111561037b5760405162461bcd60e51b815260206004820152601c60248201527f506f6f6c3a20696e73756666696369656e7420616c6c6f77616e63650000000060448201526064015b60405180910390fd5b6001600160a01b0384166000908152600660209081526040808320338452909152812080548492906103ae908490611363565b909155506103bf9050848484610e9c565b5060019392505050565b6000806007546001146103ee5760405162461bcd60e51b815260040161037290611376565b6002600755846104405760405162461bcd60e51b815260206004820152601a60248201527f506f6f6c3a206c70546f6b656e73206d757374206265203e20300000000000006044820152606401610372565b336000908152600560205260409020548511156104975760405162461bcd60e51b81526020600482015260156024820152740506f6f6c3a20696e73756666696369656e74204c5605c1b6044820152606401610372565b6004546002546104a790876113a4565b6104b191906113bb565b9150600454600354866104c491906113a4565b6104ce91906113bb565b90506000821180156104e05750600081115b6105385760405162461bcd60e51b815260206004820152602360248201527f506f6f6c3a20696e73756666696369656e74206c6971756964697479206275726044820152621b995960ea1b6064820152608401610372565b8382101580156105485750828110155b61058e5760405162461bcd60e51b8152602060048201526017602482015276141bdbdb0e881cdb1a5c1c1859d948195e18d959591959604a1b6044820152606401610372565b33600090815260056020526040812080548792906105ad908490611363565b9250508190555084600460008282546105c69190611363565b9250508190555081600260008282546105df9190611363565b9250508190555080600360008282546105f89190611363565b9091555050604080518381526020810183905290810186905233907f1dc8bb69df2b8e91fbdcbfcf93d951b3f0000f085a95fe3f7946d6161439245d9060600160405180910390a2600054610657906001600160a01b03163384611001565b60015461066e906001600160a01b03163383611001565b60016007559094909350915050565b600080600254116106a05760405162461bcd60e51b8152600401610372906113dd565b6002546003546106b890670de0b6b3a76400006113a4565b6106c291906113bb565b905090565b60006007546001146106eb5760405162461bcd60e51b815260040161037290611376565b600260075582158015906106ff5750600082115b61074b5760405162461bcd60e51b815260206004820152601960248201527f506f6f6c3a20616d6f756e7473206d757374206265203e2030000000000000006044820152606401610372565b6004548390839060000361084057600061076d61076886886113a4565b6110bd565b90506103e881116107cb5760405162461bcd60e51b815260206004820152602260248201527f506f6f6c3a20696e73756666696369656e74206669727374206c697175696469604482015261747960f01b6064820152608401610372565b6107d76103e882611363565b600080805260056020527f05b8ccbb9d4d8fb16ea74ce3c29a41f1b461fbdaff4714a0d9a8eb05499746bc80549296506103e892909190610819908490611409565b925050819055506103e8600460008282546108349190611409565b909155506108e8915050565b60006002546003548761085391906113a4565b61085d91906113bb565b905084811161087157859250809150610895565b60006003546002548761088491906113a4565b61088e91906113bb565b9350859250505b6000600254600454856108a891906113a4565b6108b291906113bb565b90506000600354600454856108c791906113a4565b6108d191906113bb565b90508082106108e057806108e2565b815b95505050505b600083116109445760405162461bcd60e51b815260206004820152602360248201527f506f6f6c3a20696e73756666696369656e74206c6971756964697479206d696e6044820152621d195960ea1b6064820152608401610372565b60005461095c906001600160a01b031633308561112d565b600154610974906001600160a01b031633308461112d565b3360009081526005602052604081208054859290610993908490611409565b9250508190555082600460008282546109ac9190611409565b9250508190555081600260008282546109c59190611409565b9250508190555080600360008282546109de9190611409565b9091555050604080518381526020810183905290810184905233907f64b83944e79c3ce8d4c297411de637c3e102d064677aac0c163976ebdcd6f50e9060600160405180910390a25050600160075592915050565b6000600754600114610a575760405162461bcd60e51b815260040161037290611376565b60026007556000546001600160a01b0385811691161480610a8557506001546001600160a01b038581169116145b610ac75760405162461bcd60e51b81526020600482015260136024820152722837b7b61d1034b73b30b634b2103a37b5b2b760691b6044820152606401610372565b60008311610b175760405162461bcd60e51b815260206004820152601a60248201527f506f6f6c3a20616d6f756e74496e206d757374206265203e20300000000000006044820152606401610372565b6000600254118015610b2b57506000600354115b610b475760405162461bcd60e51b8152600401610372906113dd565b600080546001600160a01b038681169116149081610b70576000546001600160a01b0316610b7d565b6001546001600160a01b03165b9050600082610b8e57600354610b92565b6002545b9050600083610ba357600254610ba7565b6003545b90506000610bb76103e5896113a4565b905080610bc66103e8856113a4565b610bd09190611409565b610bda83836113a4565b610be491906113bb565b955086861015610c305760405162461bcd60e51b8152602060048201526017602482015276141bdbdb0e881cdb1a5c1c1859d948195e18d959591959604a1b6044820152606401610372565b818610610c7f5760405162461bcd60e51b815260206004820152601c60248201527f506f6f6c3a20696e73756666696369656e74206c6971756964697479000000006044820152606401610372565b8415610cbb578760026000828254610c979190611409565b925050819055508560036000828254610cb09190611363565b90915550610cec9050565b8760036000828254610ccd9190611409565b925050819055508560026000828254610ce69190611363565b90915550505b610cf88933308b61112d565b610d03843388611001565b604080516001600160a01b038b81168252602082018b905286168183015260608101889052905133917f5380cf97d8f645d3c4896da60c053458dca03a3a31cec642ac80e1ddf0d8d02a919081900360800190a250506001600755509195945050505050565b6000610d76338484610e9c565b50600192915050565b600080546001600160a01b0384811691161480610da957506001546001600160a01b038481169116145b610deb5760405162461bcd60e51b81526020600482015260136024820152722837b7b61d1034b73b30b634b2103a37b5b2b760691b6044820152606401610372565b6000600254118015610dff57506000600354115b610e1b5760405162461bcd60e51b8152600401610372906113dd565b600080546001600160a01b038581169116149081610e3b57600354610e3f565b6002545b9050600082610e5057600254610e54565b6003545b90506000610e646103e5876113a4565b905080610e736103e8856113a4565b610e7d9190611409565b610e8783836113a4565b610e9191906113bb565b979650505050505050565b6001600160a01b038216610eeb5760405162461bcd60e51b8152602060048201526016602482015275506f6f6c3a207472616e7366657220746f207a65726f60501b6044820152606401610372565b6001600160a01b038316600090815260056020526040902054811115610f535760405162461bcd60e51b815260206004820152601d60248201527f506f6f6c3a20696e73756666696369656e74204c502062616c616e63650000006044820152606401610372565b6001600160a01b03831660009081526005602052604081208054839290610f7b908490611363565b90915550506001600160a01b03821660009081526005602052604081208054839290610fa8908490611409565b92505081905550816001600160a01b0316836001600160a01b03167fddf252ad1be2c89b69c2b068fc378daa952ba7f163c4a11628f55a4df523b3ef83604051610ff491815260200190565b60405180910390a3505050565b60405163a9059cbb60e01b81526001600160a01b0383811660048301526024820183905284169063a9059cbb906044016020604051808303816000875af1158015611050573d6000803e3d6000fd5b505050506040513d601f19601f82011682018060405250810190611074919061141c565b6110b85760405162461bcd60e51b8152602060048201526015602482015274141bdbdb0e881d1c985b9cd9995c8819985a5b1959605a1b6044820152606401610372565b505050565b6000600382111561111e57508060006110d76002836113bb565b6110e2906001611409565b90505b81811015611118579050806002816110fd81866113bb565b6111079190611409565b61111191906113bb565b90506110e5565b50919050565b8115611128575060015b919050565b6040516323b872dd60e01b81526001600160a01b0384811660048301528381166024830152604482018390528516906323b872dd906064016020604051808303816000875af1158015611184573d6000803e3d6000fd5b505050506040513d601f19601f820116820180604052508101906111a8919061141c565b6111f45760405162461bcd60e51b815260206004820152601960248201527f506f6f6c3a207472616e7366657246726f6d206661696c6564000000000000006044820152606401610372565b50505050565b80356001600160a01b038116811461112857600080fd5b6000806040838503121561122457600080fd5b61122d836111fa565b946020939093013593505050565b60008060006060848603121561125057600080fd5b611259846111fa565b9250611267602085016111fa565b9150604084013590509250925092565b60006020828403121561128957600080fd5b611292826111fa565b9392505050565b6000806000606084860312156112ae57600080fd5b505081359360208301359350604090920135919050565b600080604083850312156112d857600080fd5b50508035926020909101359150565b6000806000606084860312156112fc57600080fd5b611305846111fa565b95602085013595506040909401359392505050565b6000806040838503121561132d57600080fd5b611336836111fa565b9150611344602084016111fa565b90509250929050565b634e487b7160e01b600052601160045260246000fd5b818103818111156102fd576102fd61134d565b602080825260149082015273141bdbdb0e881c99595b9d1c985b9d0818d85b1b60621b604082015260600190565b80820281158282048414176102fd576102fd61134d565b6000826113d857634e487b7160e01b600052601260045260246000fd5b500490565b602080825260129082015271506f6f6c3a206e6f206c697175696469747960701b604082015260600190565b808201808211156102fd576102fd61134d565b60006020828403121561142e57600080fd5b8151801515811461129257600080fdfea2646970667358221220da12b81976a457ef564033433eceeac8031a5ad1169705772bf940e1264d79c564736f6c63430008140033","opcodes":"PUSH1 0x80 PUSH1 0x40 MSTORE PUSH1 0x1 PUSH1 0x7 SSTORE CALLVALUE DUP1 ISZERO PUSH3 0x16 JUMPI PUSH1 0x0 DUP1 REVERT JUMPDEST POP PUSH1 0x40 MLOAD PUSH3 0x160F CODESIZE SUB DUP1 PUSH3 0x160F DUP4 CODECOPY DUP2 ADD PUSH1 0x40 DUP2 SWAP1 MSTORE PUSH3 0x39 SWAP2 PUSH3 0x153 JUMP JUMPDEST DUP1 PUSH1 0x1 PUSH1 0x1 PUSH1 0xA0 SHL SUB AND DUP3 PUSH1 0x1 PUSH1 0x1 PUSH1 0xA0 SHL SUB AND SUB PUSH3 0xA0 JUMPI PUSH1 0x40 MLOAD PUSH3 0x461BCD PUSH1 0xE5 SHL DUP2 MSTORE PUSH1 0x20 PUSH1 0x4 DUP3 ADD MSTORE PUSH1 0x16 PUSH1 0x24 DUP3 ADD MSTORE PUSH32 0x506F6F6C3A206964656E746963616C20746F6B656E7300000000000000000000 PUSH1 0x44 DUP3 ADD MSTORE PUSH1 0x64 ADD JUMPDEST PUSH1 0x40 MLOAD DUP1 SWAP2 SUB SWAP1 REVERT JUMPDEST PUSH1 0x1 PUSH1 0x1 PUSH1 0xA0 SHL SUB DUP3 AND ISZERO DUP1 ISZERO SWAP1 PUSH3 0xC1 JUMPI POP PUSH1 0x1 PUSH1 0x1 PUSH1 0xA0 SHL SUB DUP2 AND ISZERO ISZERO JUMPDEST PUSH3 0x104 JUMPI PUSH1 0x40 MLOAD PUSH3 0x461BCD PUSH1 0xE5 SHL DUP2 MSTORE PUSH1 0x20 PUSH1 0x4 DUP3 ADD MSTORE PUSH1 0x12 PUSH1 0x24 DUP3 ADD MSTORE PUSH18 0x506F6F6C3A207A65726F2061646472657373 PUSH1 0x70 SHL PUSH1 0x44 DUP3 ADD MSTORE PUSH1 0x64 ADD PUSH3 0x97 JUMP JUMPDEST PUSH1 0x0 DUP1 SLOAD PUSH1 0x1 PUSH1 0x1 PUSH1 0xA0 SHL SUB SWAP4 DUP5 AND PUSH1 0x1 PUSH1 0x1 PUSH1 0xA0 SHL SUB NOT SWAP2 DUP3 AND OR SWAP1 SWAP2 SSTORE PUSH1 0x1 DUP1 SLOAD SWAP3 SWAP1 SWAP4 AND SWAP2 AND OR SWAP1 SSTORE PUSH3 0x18B JUMP JUMPDEST DUP1 MLOAD PUSH1 0x1 PUSH1 0x1 PUSH1 0xA0 SHL SUB DUP2 AND DUP2 EQ PUSH3 0x14E JUMPI PUSH1 0x0 DUP1 REVERT JUMPDEST SWAP2 SWAP1 POP JUMP JUMPDEST PUSH1 0x0 DUP1 PUSH1 0x40 DUP4 DUP6 SUB SLT ISZERO PUSH3 0x167 JUMPI PUSH1 0x0 DUP1 REVERT JUMPDEST PUSH3 0x172 DUP4 PUSH3 0x136 JUMP JUMPDEST SWAP2 POP PUSH3 0x182 PUSH1 0x20 DUP5 ADD PUSH3 0x136 JUMP JUMPDEST SWAP1 POP SWAP3 POP SWAP3 SWAP1 POP JUMP JUMPDEST PUSH2 0x1474 DUP1 PUSH3 0x19B PUSH1 0x0 CODECOPY PUSH1 0x0 RETURN INVALID PUSH1 0x80 PUSH1 0x40 MSTORE CALLVALUE DUP1 ISZERO PUSH2 0x10 JUMPI PUSH1 0x0 DUP1 REVERT JUMPDEST POP PUSH1 0x4 CALLDATASIZE LT PUSH2 0x116 JUMPI PUSH1 0x0 CALLDATALOAD PUSH1 0xE0 SHR DUP1 PUSH4 0x98D5FDCA GT PUSH2 0xA2 JUMPI DUP1 PUSH4 0xBA9A7A56 GT PUSH2 0x71 JUMPI DUP1 PUSH4 0xBA9A7A56 EQ PUSH2 0x246 JUMPI DUP1 PUSH4 0xCA706BCF EQ PUSH2 0x24F JUMPI DUP1 PUSH4 0xD73792A9 EQ PUSH2 0x246 JUMPI DUP1 PUSH4 0xDC5FA6C5 EQ PUSH2 0x262 JUMPI DUP1 PUSH4 0xDD62ED3E EQ PUSH2 0x26B JUMPI PUSH1 0x0 DUP1 REVERT JUMPDEST DUP1 PUSH4 0x98D5FDCA EQ PUSH2 0x205 JUMPI DUP1 PUSH4 0x9CD441DA EQ PUSH2 0x20D JUMPI DUP1 PUSH4 0x9F1D0F59 EQ PUSH2 0x220 JUMPI DUP1 PUSH4 0xA9059CBB EQ PUSH2 0x233 JUMPI PUSH1 0x0 DUP1 REVERT JUMPDEST DUP1 PUSH4 0x23B872DD GT PUSH2 0xE9 JUMPI DUP1 PUSH4 0x23B872DD EQ PUSH2 0x18E JUMPI DUP1 PUSH4 0x41CD47BF EQ PUSH2 0x1A1 JUMPI DUP1 PUSH4 0x5F64B55B EQ PUSH2 0x1AA JUMPI DUP1 PUSH4 0x70A08231 EQ PUSH2 0x1BD JUMPI DUP1 PUSH4 0x857620E1 EQ PUSH2 0x1DD JUMPI PUSH1 0x0 DUP1 REVERT JUMPDEST DUP1 PUSH4 0x95EA7B3 EQ PUSH2 0x11B JUMPI DUP1 PUSH4 0xFC63D10 EQ PUSH2 0x143 JUMPI DUP1 PUSH4 0x18160DDD EQ PUSH2 0x16E JUMPI DUP1 PUSH4 0x19E36F3B EQ PUSH2 0x185 JUMPI JUMPDEST PUSH1 0x0 DUP1 REVERT JUMPDEST PUSH2 0x12E PUSH2 0x129 CALLDATASIZE PUSH1 0x4 PUSH2 0x1211 JUMP JUMPDEST PUSH2 0x296 JUMP JUMPDEST PUSH1 0x40 MLOAD SWAP1 ISZERO ISZERO DUP2 MSTORE PUSH1 0x20 ADD JUMPDEST PUSH1 0x40 MLOAD DUP1 SWAP2 SUB SWAP1 RETURN JUMPDEST PUSH1 0x0 SLOAD PUSH2 0x156 SWAP1 PUSH1 0x1 PUSH1 0x1 PUSH1 0xA0 SHL SUB AND DUP2 JUMP JUMPDEST PUSH1 0x40 MLOAD PUSH1 0x1 PUSH1 0x1 PUSH1 0xA0 SHL SUB SWAP1 SWAP2 AND DUP2 MSTORE PUSH1 0x20 ADD PUSH2 0x13A JUMP JUMPDEST PUSH2 0x177 PUSH1 0x4 SLOAD DUP2 JUMP JUMPDEST PUSH1 0x40 MLOAD SWAP1 DUP2 MSTORE PUSH1 0x20 ADD PUSH2 0x13A JUMP JUMPDEST PUSH2 0x177 PUSH1 0x3 SLOAD DUP2 JUMP JUMPDEST PUSH2 0x12E PUSH2 0x19C CALLDATASIZE PUSH1 0x4 PUSH2 0x123B JUMP JUMPDEST PUSH2 0x303 JUMP JUMPDEST PUSH2 0x177 PUSH2 0x3E5 DUP2 JUMP JUMPDEST PUSH1 0x1 SLOAD PUSH2 0x156 SWAP1 PUSH1 0x1 PUSH1 0x1 PUSH1 0xA0 SHL SUB AND DUP2 JUMP JUMPDEST PUSH2 0x177 PUSH2 0x1CB CALLDATASIZE PUSH1 0x4 PUSH2 0x1277 JUMP JUMPDEST PUSH1 0x5 PUSH1 0x20 MSTORE PUSH1 0x0 SWAP1 DUP2 MSTORE PUSH1 0x40 SWAP1 KECCAK256 SLOAD DUP2 JUMP JUMPDEST PUSH2 0x1F0 PUSH2 0x1EB CALLDATASIZE PUSH1 0x4 PUSH2 0x1299 JUMP JUMPDEST PUSH2 0x3C9 JUMP JUMPDEST PUSH1 0x40 DUP1 MLOAD SWAP3 DUP4 MSTORE PUSH1 0x20 DUP4 ADD SWAP2 SWAP1 SWAP2 MSTORE ADD PUSH2 0x13A JUMP JUMPDEST PUSH2 0x177 PUSH2 0x67D JUMP JUMPDEST PUSH2 0x177 PUSH2 0x21B CALLDATASIZE PUSH1 0x4 PUSH2 0x12C5 JUMP JUMPDEST PUSH2 0x6C7 JUMP JUMPDEST PUSH2 0x177 PUSH2 0x22E CALLDATASIZE PUSH1 0x4 PUSH2 0x12E7 JUMP JUMPDEST PUSH2 0xA33 JUMP JUMPDEST PUSH2 0x12E PUSH2 0x241 CALLDATASIZE PUSH1 0x4 PUSH2 0x1211 JUMP JUMPDEST PUSH2 0xD69 JUMP JUMPDEST PUSH2 0x177 PUSH2 0x3E8 DUP2 JUMP JUMPDEST PUSH2 0x177 PUSH2 0x25D CALLDATASIZE PUSH1 0x4 PUSH2 0x1211 JUMP JUMPDEST PUSH2 0xD7F JUMP JUMPDEST PUSH2 0x177 PUSH1 0x2 SLOAD DUP2 JUMP JUMPDEST PUSH2 0x177 PUSH2 0x279 CALLDATASIZE PUSH1 0x4 PUSH2 0x131A JUMP JUMPDEST PUSH1 0x6 PUSH1 0x20 SWAP1 DUP2 MSTORE PUSH1 0x0 SWAP3 DUP4 MSTORE PUSH1 0x40 DUP1 DUP5 KECCAK256 SWAP1 SWAP2 MSTORE SWAP1 DUP3 MSTORE SWAP1 KECCAK256 SLOAD DUP2 JUMP JUMPDEST CALLER PUSH1 0x0 DUP2 DUP2 MSTORE PUSH1 0x6 PUSH1 0x20 SWAP1 DUP2 MSTORE PUSH1 0x40 DUP1 DUP4 KECCAK256 PUSH1 0x1 PUSH1 0x1 PUSH1 0xA0 SHL SUB DUP8 AND DUP1 DUP6 MSTORE SWAP3 MSTORE DUP1 DUP4 KECCAK256 DUP6 SWAP1 SSTORE MLOAD SWAP2 SWAP3 SWAP1 SWAP2 PUSH32 0x8C5BE1E5EBEC7D5BD14F71427D1E84F3DD0314C0F7B2291E5B200AC8C7C3B925 SWAP1 PUSH2 0x2F1 SWAP1 DUP7 DUP2 MSTORE PUSH1 0x20 ADD SWAP1 JUMP JUMPDEST PUSH1 0x40 MLOAD DUP1 SWAP2 SUB SWAP1 LOG3 POP PUSH1 0x1 JUMPDEST SWAP3 SWAP2 POP POP JUMP JUMPDEST PUSH1 0x1 PUSH1 0x1 PUSH1 0xA0 SHL SUB DUP4 AND PUSH1 0x0 SWAP1 DUP2 MSTORE PUSH1 0x6 PUSH1 0x20 SWAP1 DUP2 MSTORE PUSH1 0x40 DUP1 DUP4 KECCAK256 CALLER DUP5 MSTORE SWAP1 SWAP2 MSTORE DUP2 KECCAK256 SLOAD DUP3 GT ISZERO PUSH2 0x37B JUMPI PUSH1 0x40 MLOAD PUSH3 0x461BCD PUSH1 0xE5 SHL DUP2 MSTORE PUSH1 0x20 PUSH1 0x4 DUP3 ADD MSTORE PUSH1 0x1C PUSH1 0x24 DUP3 ADD MSTORE PUSH32 0x506F6F6C3A20696E73756666696369656E7420616C6C6F77616E636500000000 PUSH1 0x44 DUP3 ADD MSTORE PUSH1 0x64 ADD JUMPDEST PUSH1 0x40 MLOAD DUP1 SWAP2 SUB SWAP1 REVERT JUMPDEST PUSH1 0x1 PUSH1 0x1 PUSH1 0xA0 SHL SUB DUP5 AND PUSH1 0x0 SWAP1 DUP2 MSTORE PUSH1 0x6 PUSH1 0x20 SWAP1 DUP2 MSTORE PUSH1 0x40 DUP1 DUP4 KECCAK256 CALLER DUP5 MSTORE SWAP1 SWAP2 MSTORE DUP2 KECCAK256 DUP1 SLOAD DUP5 SWAP3 SWAP1 PUSH2 0x3AE SWAP1 DUP5 SWAP1 PUSH2 0x1363 JUMP JUMPDEST SWAP1 SWAP2 SSTORE POP PUSH2 0x3BF SWAP1 POP DUP5 DUP5 DUP5 PUSH2 0xE9C JUMP JUMPDEST POP PUSH1 0x1 SWAP4 SWAP3 POP POP POP JUMP JUMPDEST PUSH1 0x0 DUP1 PUSH1 0x7 SLOAD PUSH1 0x1 EQ PUSH2 0x3EE JUMPI PUSH1 0x40 MLOAD PUSH3 0x461BCD PUSH1 0xE5 SHL DUP2 MSTORE PUSH1 0x4 ADD PUSH2 0x372 SWAP1 PUSH2 0x1376 JUMP JUMPDEST PUSH1 0x2 PUSH1 0x7 SSTORE DUP5 PUSH2 0x440 JUMPI PUSH1 0x40 MLOAD PUSH3 0x461BCD PUSH1 0xE5 SHL DUP2 MSTORE PUSH1 0x20 PUSH1 0x4 DUP3 ADD MSTORE PUSH1 0x1A PUSH1 0x24 DUP3 ADD MSTORE PUSH32 0x506F6F6C3A206C70546F6B656E73206D757374206265203E2030000000000000 PUSH1 0x44 DUP3 ADD MSTORE PUSH1 0x64 ADD PUSH2 0x372 JUMP JUMPDEST CALLER PUSH1 0x0 SWAP1 DUP2 MSTORE PUSH1 0x5 PUSH1 0x20 MSTORE PUSH1 0x40 SWAP1 KECCAK256 SLOAD DUP6 GT ISZERO PUSH2 0x497 JUMPI PUSH1 0x40 MLOAD PUSH3 0x461BCD PUSH1 0xE5 SHL DUP2 MSTORE PUSH1 0x20 PUSH1 0x4 DUP3 ADD MSTORE PUSH1 0x15 PUSH1 0x24 DUP3 ADD MSTORE PUSH21 0x506F6F6C3A20696E73756666696369656E74204C5 PUSH1 0x5C SHL PUSH1 0x44 DUP3 ADD MSTORE PUSH1 0x64 ADD PUSH2 0x372 JUMP JUMPDEST PUSH1 0x4 SLOAD PUSH1 0x2 SLOAD PUSH2 0x4A7 SWAP1 DUP8 PUSH2 0x13A4 JUMP JUMPDEST PUSH2 0x4B1 SWAP2 SWAP1 PUSH2 0x13BB JUMP JUMPDEST SWAP2 POP PUSH1 0x4 SLOAD PUSH1 0x3 SLOAD DUP7 PUSH2 0x4C4 SWAP2 SWAP1 PUSH2 0x13A4 JUMP JUMPDEST PUSH2 0x4CE SWAP2 SWAP1 PUSH2 0x13BB JUMP JUMPDEST SWAP1 POP PUSH1 0x0 DUP3 GT DUP1 ISZERO PUSH2 0x4E0 JUMPI POP PUSH1 0x0 DUP2 GT JUMPDEST PUSH2 0x538 JUMPI PUSH1 0x40 MLOAD PUSH3 0x461BCD PUSH1 0xE5 SHL DUP2 MSTORE PUSH1 0x20 PUSH1 0x4 DUP3 ADD MSTORE PUSH1 0x23 PUSH1 0x24 DUP3 ADD MSTORE PUSH32 0x506F6F6C3A20696E73756666696369656E74206C697175696469747920627572 PUSH1 0x44 DUP3 ADD MSTORE PUSH3 0x1B9959 PUSH1 0xEA SHL PUSH1 0x64 DUP3 ADD MSTORE PUSH1 0x84 ADD PUSH2 0x372 JUMP JUMPDEST DUP4 DUP3 LT ISZERO DUP1 ISZERO PUSH2 0x548 JUMPI POP DUP3 DUP2 LT ISZERO JUMPDEST PUSH2 0x58E JUMPI PUSH1 0x40 MLOAD PUSH3 0x461BCD PUSH1 0xE5 SHL DUP2 MSTORE PUSH1 0x20 PUSH1 0x4 DUP3 ADD MSTORE PUSH1 0x17 PUSH1 0x24 DUP3 ADD MSTORE PUSH23 0x141BDBDB0E881CDB1A5C1C1859D948195E18D959591959 PUSH1 0x4A SHL PUSH1 0x44 DUP3 ADD MSTORE PUSH1 0x64 ADD PUSH2 0x372 JUMP JUMPDEST CALLER PUSH1 0x0 SWAP1 DUP2 MSTORE PUSH1 0x5 PUSH1 0x20 MSTORE PUSH1 0x40 DUP2 KECCAK256 DUP1 SLOAD DUP8 SWAP3 SWAP1 PUSH2 0x5AD SWAP1 DUP5 SWAP1 PUSH2 0x1363 JUMP JUMPDEST SWAP3 POP POP DUP2 SWAP1 SSTORE POP DUP5 PUSH1 0x4 PUSH1 0x0 DUP3 DUP3 SLOAD PUSH2 0x5C6 SWAP2 SWAP1 PUSH2 0x1363 JUMP JUMPDEST SWAP3 POP POP DUP2 SWAP1 SSTORE POP DUP2 PUSH1 0x2 PUSH1 0x0 DUP3 DUP3 SLOAD PUSH2 0x5DF SWAP2 SWAP1 PUSH2 0x1363 JUMP JUMPDEST SWAP3 POP POP DUP2 SWAP1 SSTORE POP DUP1 PUSH1 0x3 PUSH1 0x0 DUP3 DUP3 SLOAD PUSH2 0x5F8 SWAP2 SWAP1 PUSH2 0x1363 JUMP JUMPDEST SWAP1 SWAP2 SSTORE POP POP PUSH1 0x40 DUP1 MLOAD DUP4 DUP2 MSTORE PUSH1 0x20 DUP2 ADD DUP4 SWAP1 MSTORE SWAP1 DUP2 ADD DUP7 SWAP1 MSTORE CALLER SWAP1 PUSH32 0x1DC8BB69DF2B8E91FBDCBFCF93D951B3F0000F085A95FE3F7946D6161439245D SWAP1 PUSH1 0x60 ADD PUSH1 0x40 MLOAD DUP1 SWAP2 SUB SWAP1 LOG2 PUSH1 0x0 SLOAD PUSH2 0x657 SWAP1 PUSH1 0x1 PUSH1 0x1 PUSH1 0xA0 SHL SUB AND CALLER DUP5 PUSH2 0x1001 JUMP JUMPDEST PUSH1 0x1 SLOAD PUSH2 0x66E SWAP1 PUSH1 0x1 PUSH1 0x1 PUSH1 0xA0 SHL SUB AND CALLER DUP4 PUSH2 0x1001 JUMP JUMPDEST PUSH1 0x1 PUSH1 0x7 SSTORE SWAP1 SWAP5 SWAP1 SWAP4 POP SWAP2 POP POP JUMP JUMPDEST PUSH1 0x0 DUP1 PUSH1 0x2 SLOAD GT PUSH2 0x6A0 JUMPI PUSH1 0x40 MLOAD PUSH3 0x461BCD PUSH1 0xE5 SHL DUP2 MSTORE PUSH1 0x4 ADD PUSH2 0x372 SWAP1 PUSH2 0x13DD JUMP JUMPDEST PUSH1 0x2 SLOAD PUSH1 0x3 SLOAD PUSH2 0x6B8 SWAP1 PUSH8 0xDE0B6B3A7640000 PUSH2 0x13A4 JUMP JUMPDEST PUSH2 0x6C2 SWAP2 SWAP1 PUSH2 0x13BB JUMP JUMPDEST SWAP1 POP SWAP1 JUMP JUMPDEST PUSH1 0x0 PUSH1 0x7 SLOAD PUSH1 0x1 EQ PUSH2 0x6EB JUMPI PUSH1 0x40 MLOAD PUSH3 0x461BCD PUSH1 0xE5 SHL DUP2 MSTORE PUSH1 0x4 ADD PUSH2 0x372 SWAP1 PUSH2 0x1376 JUMP JUMPDEST PUSH1 0x2 PUSH1 0x7 SSTORE DUP3 ISZERO DUP1 ISZERO SWAP1 PUSH2 0x6FF JUMPI POP PUSH1 0x0 DUP3 GT JUMPDEST PUSH2 0x74B JUMPI PUSH1 0x40 MLOAD PUSH3 0x461BCD PUSH1 0xE5 SHL DUP2 MSTORE PUSH1 0x20 PUSH1 0x4 DUP3 ADD MSTORE PUSH1 0x19 PUSH1 0x24 DUP3 ADD MSTORE PUSH32 0x506F6F6C3A20616D6F756E7473206D757374206265203E203000000000000000 PUSH1 0x44 DUP3 ADD MSTORE PUSH1 0x64 ADD PUSH2 0x372 JUMP JUMPDEST PUSH1 0x4 SLOAD DUP4 SWAP1 DUP4 SWAP1 PUSH1 0x0 SUB PUSH2 0x840 JUMPI PUSH1 0x0 PUSH2 0x76D PUSH2 0x768 DUP7 DUP9 PUSH2 0x13A4 JUMP JUMPDEST PUSH2 0x10BD JUMP JUMPDEST SWAP1 POP PUSH2 0x3E8 DUP2 GT PUSH2 0x7CB JUMPI PUSH1 0x40 MLOAD PUSH3 0x461BCD PUSH1 0xE5 SHL DUP2 MSTORE PUSH1 0x20 PUSH1 0x4 DUP3 ADD MSTORE PUSH1 0x22 PUSH1 0x24 DUP3 ADD MSTORE PUSH32 0x506F6F6C3A20696E73756666696369656E74206669727374206C697175696469 PUSH1 0x44 DUP3 ADD MSTORE PUSH2 0x7479 PUSH1 0xF0 SHL PUSH1 0x64 DUP3 ADD MSTORE PUSH1 0x84 ADD PUSH2 0x372 JUMP JUMPDEST PUSH2 0x7D7 PUSH2 0x3E8 DUP3 PUSH2 0x1363 JUMP JUMPDEST PUSH1 0x0 DUP1 DUP1 MSTORE PUSH1 0x5 PUSH1 0x20 MSTORE PUSH32 0x5B8CCBB9D4D8FB16EA74CE3C29A41F1B461FBDAFF4714A0D9A8EB05499746BC DUP1 SLOAD SWAP3 SWAP7 POP PUSH2 0x3E8 SWAP3 SWAP1 SWAP2 SWAP1 PUSH2 0x819 SWAP1 DUP5 SWAP1 PUSH2 0x1409 JUMP JUMPDEST SWAP3 POP POP DUP2 SWAP1 SSTORE POP PUSH2 0x3E8 PUSH1 0x4 PUSH1 0x0 DUP3 DUP3 SLOAD PUSH2 0x834 SWAP2 SWAP1 PUSH2 0x1409 JUMP JUMPDEST SWAP1 SWAP2 SSTORE POP PUSH2 0x8E8 SWAP2 POP POP JUMP JUMPDEST PUSH1 0x0 PUSH1 0x2 SLOAD PUSH1 0x3 SLOAD DUP8 PUSH2 0x853 SWAP2 SWAP1 PUSH2 0x13A4 JUMP JUMPDEST PUSH2 0x85D SWAP2 SWAP1 PUSH2 0x13BB JUMP JUMPDEST SWAP1 POP DUP5 DUP2 GT PUSH2 0x871 JUMPI DUP6 SWAP3 POP DUP1 SWAP2 POP PUSH2 0x895 JUMP JUMPDEST PUSH1 0x0 PUSH1 0x3 SLOAD PUSH1 0x2 SLOAD DUP8 PUSH2 0x884 SWAP2 SWAP1 PUSH2 0x13A4 JUMP JUMPDEST PUSH2 0x88E SWAP2 SWAP1 PUSH2 0x13BB JUMP JUMPDEST SWAP4 POP DUP6 SWAP3 POP POP JUMPDEST PUSH1 0x0 PUSH1 0x2 SLOAD PUSH1 0x4 SLOAD DUP6 PUSH2 0x8A8 SWAP2 SWAP1 PUSH2 0x13A4 JUMP JUMPDEST PUSH2 0x8B2 SWAP2 SWAP1 PUSH2 0x13BB JUMP JUMPDEST SWAP1 POP PUSH1 0x0 PUSH1 0x3 SLOAD PUSH1 0x4 SLOAD DUP6 PUSH2 0x8C7 SWAP2 SWAP1 PUSH2 0x13A4 JUMP JUMPDEST PUSH2 0x8D1 SWAP2 SWAP1 PUSH2 0x13BB JUMP JUMPDEST SWAP1 POP DUP1 DUP3 LT PUSH2 0x8E0 JUMPI DUP1 PUSH2 0x8E2 JUMP JUMPDEST DUP2 JUMPDEST SWAP6 POP POP POP POP JUMPDEST PUSH1 0x0 DUP4 GT PUSH2 0x944 JUMPI PUSH1 0x40 MLOAD PUSH3 0x461BCD PUSH1 0xE5 SHL DUP2 MSTORE PUSH1 0x20 PUSH1 0x4 DUP3 ADD MSTORE PUSH1 0x23 PUSH1 0x24 DUP3 ADD MSTORE PUSH32 0x506F6F6C3A20696E73756666696369656E74206C6971756964697479206D696E PUSH1 0x44 DUP3 ADD MSTORE PUSH3 0x1D1959 PUSH1 0xEA SHL PUSH1 0x64 DUP3 ADD MSTORE PUSH1 0x84 ADD PUSH2 0x372 JUMP JUMPDEST PUSH1 0x0 SLOAD PUSH2 0x95C SWAP1 PUSH1 0x1 PUSH1 0x1 PUSH1 0xA0 SHL SUB AND CALLER ADDRESS DUP6 PUSH2 0x112D JUMP JUMPDEST PUSH1 0x1 SLOAD PUSH2 0x974 SWAP1 PUSH1 0x1 PUSH1 0x1 PUSH1 0xA0 SHL SUB AND CALLER ADDRESS DUP5 PUSH2 0x112D JUMP JUMPDEST CALLER PUSH1 0x0 SWAP1 DUP2 MSTORE PUSH1 0x5 PUSH1 0x20 MSTORE PUSH1 0x40 DUP2 KECCAK256 DUP1 SLOAD DUP6 SWAP3 SWAP1 PUSH2 0x993 SWAP1 DUP5 SWAP1 PUSH2 0x1409 JUMP JUMPDEST SWAP3 POP POP DUP2 SWAP1 SSTORE POP DUP3 PUSH1 0x4 PUSH1 0x0 DUP3 DUP3 SLOAD PUSH2 0x9AC SWAP2 SWAP1 PUSH2 0x1409 JUMP JUMPDEST SWAP3 POP POP DUP2 SWAP1 SSTORE POP DUP2 PUSH1 0x2 PUSH1 0x0 DUP3 DUP3 SLOAD PUSH2 0x9C5 SWAP2 SWAP1 PUSH2 0x1409 JUMP JUMPDEST SWAP3 POP POP DUP2 SWAP1 SSTORE POP DUP1 PUSH1 0x3 PUSH1 0x0 DUP3 DUP3 SLOAD PUSH2 0x9DE SWAP2 SWAP1 PUSH2 0x1409 JUMP JUMPDEST SWAP1 SWAP2 SSTORE POP POP PUSH1 0x40 DUP1 MLOAD DUP4 DUP2 MSTORE PUSH1 0x20 DUP2 ADD DUP4 SWAP1 MSTORE SWAP1 DUP2 ADD DUP5 SWAP1 MSTORE CALLER SWAP1 PUSH32 0x64B83944E79C3CE8D4C297411DE637C3E102D064677AAC0C163976EBDCD6F50E SWAP1 PUSH1 0x60 ADD PUSH1 0x40 MLOAD DUP1 SWAP2 SUB SWAP1 LOG2 POP POP PUSH1 0x1 PUSH1 0x7 SSTORE SWAP3 SWAP2 POP POP JUMP JUMPDEST PUSH1 0x0 PUSH1 0x7 SLOAD PUSH1 0x1 EQ PUSH2 0xA57 JUMPI PUSH1 0x40 MLOAD PUSH3 0x461BCD PUSH1 0xE5 SHL DUP2 MSTORE PUSH1 0x4 ADD PUSH2 0x372 SWAP1 PUSH2 0x1376 JUMP JUMPDEST PUSH1 0x2 PUSH1 0x7 SSTORE PUSH1 0x0 SLOAD PUSH1 0x1 PUSH1 0x1 PUSH1 0xA0 SHL SUB DUP6 DUP2 AND SWAP2 AND EQ DUP1 PUSH2 0xA85 JUMPI POP PUSH1 0x1 SLOAD PUSH1 0x1 PUSH1 0x1 PUSH1 0xA0 SHL SUB DUP6 DUP2 AND SWAP2 AND EQ JUMPDEST PUSH2 0xAC7 JUMPI PUSH1 0x40 MLOAD PUSH3 0x461BCD PUSH1 0xE5 SHL DUP2 MSTORE PUSH1 0x20 PUSH1 0x4 DUP3 ADD MSTORE PUSH1 0x13 PUSH1 0x24 DUP3 ADD MSTORE PUSH19 0x2837B7B61D1034B73B30B634B2103A37B5B2B7 PUSH1 0x69 SHL PUSH1 0x44 DUP3 ADD MSTORE PUSH1 0x64 ADD PUSH2 0x372 JUMP JUMPDEST PUSH1 0x0 DUP4 GT PUSH2 0xB17 JUMPI PUSH1 0x40 MLOAD PUSH3 0x461BCD PUSH1 0xE5 SHL DUP2 MSTORE PUSH1 0x20 PUSH1 0x4 DUP3 ADD MSTORE PUSH1 0x1A PUSH1 0x24 DUP3 ADD MSTORE PUSH32 0x506F6F6C3A20616D6F756E74496E206D757374206265203E2030000000000000 PUSH1 0x44 DUP3 ADD MSTORE PUSH1 0x64 ADD PUSH2 0x372 JUMP JUMPDEST PUSH1 0x0 PUSH1 0x2 SLOAD GT DUP1 ISZERO PUSH2 0xB2B JUMPI POP PUSH1 0x0 PUSH1 0x3 SLOAD GT JUMPDEST PUSH2 0xB47 JUMPI PUSH1 0x40 MLOAD PUSH3 0x461BCD PUSH1 0xE5 SHL DUP2 MSTORE PUSH1 0x4 ADD PUSH2 0x372 SWAP1 PUSH2 0x13DD JUMP JUMPDEST PUSH1 0x0 DUP1 SLOAD PUSH1 0x1 PUSH1 0x1 PUSH1 0xA0 SHL SUB DUP7 DUP2 AND SWAP2 AND EQ SWAP1 DUP2 PUSH2 0xB70 JUMPI PUSH1 0x0 SLOAD PUSH1 0x1 PUSH1 0x1 PUSH1 0xA0 SHL SUB AND PUSH2 0xB7D JUMP JUMPDEST PUSH1 0x1 SLOAD PUSH1 0x1 PUSH1 0x1 PUSH1 0xA0 SHL SUB AND JUMPDEST SWAP1 POP PUSH1 0x0 DUP3 PUSH2 0xB8E JUMPI PUSH1 0x3 SLOAD PUSH2 0xB92 JUMP JUMPDEST PUSH1 0x2 SLOAD JUMPDEST SWAP1 POP PUSH1 0x0 DUP4 PUSH2 0xBA3 JUMPI PUSH1 0x2 SLOAD PUSH2 0xBA7 JUMP JUMPDEST PUSH1 0x3 SLOAD JUMPDEST SWAP1 POP PUSH1 0x0 PUSH2 0xBB7 PUSH2 0x3E5 DUP10 PUSH2 0x13A4 JUMP JUMPDEST SWAP1 POP DUP1 PUSH2 0xBC6 PUSH2 0x3E8 DUP6 PUSH2 0x13A4 JUMP JUMPDEST PUSH2 0xBD0 SWAP2 SWAP1 PUSH2 0x1409 JUMP JUMPDEST PUSH2 0xBDA DUP4 DUP4 PUSH2 0x13A4 JUMP JUMPDEST PUSH2 0xBE4 SWAP2 SWAP1 PUSH2 0x13BB JUMP JUMPDEST SWAP6 POP DUP7 DUP7 LT ISZERO PUSH2 0xC30 JUMPI PUSH1 0x40 MLOAD PUSH3 0x461BCD PUSH1 0xE5 SHL DUP2 MSTORE PUSH1 0x20 PUSH1 0x4 DUP3 ADD MSTORE PUSH1 0x17 PUSH1 0x24 DUP3 ADD MSTORE PUSH23 0x141BDBDB0E881CDB1A5C1C1859D948195E18D959591959 PUSH1 0x4A SHL PUSH1 0x44 DUP3 ADD MSTORE PUSH1 0x64 ADD PUSH2 0x372 JUMP JUMPDEST DUP2 DUP7 LT PUSH2 0xC7F JUMPI PUSH1 0x40 MLOAD PUSH3 0x461BCD PUSH1 0xE5 SHL DUP2 MSTORE PUSH1 0x20 PUSH1 0x4 DUP3 ADD MSTORE PUSH1 0x1C PUSH1 0x24 DUP3 ADD MSTORE PUSH32 0x506F6F6C3A20696E73756666696369656E74206C697175696469747900000000 PUSH1 0x44 DUP3 ADD MSTORE PUSH1 0x64 ADD PUSH2 0x372 JUMP JUMPDEST DUP5 ISZERO PUSH2 0xCBB JUMPI DUP8 PUSH1 0x2 PUSH1 0x0 DUP3 DUP3 SLOAD PUSH2 0xC97 SWAP2 SWAP1 PUSH2 0x1409 JUMP JUMPDEST SWAP3 POP POP DUP2 SWAP1 SSTORE POP DUP6 PUSH1 0x3 PUSH1 0x0 DUP3 DUP3 SLOAD PUSH2 0xCB0 SWAP2 SWAP1 PUSH2 0x1363 JUMP JUMPDEST SWAP1 SWAP2 SSTORE POP PUSH2 0xCEC SWAP1 POP JUMP JUMPDEST DUP8 PUSH1 0x3 PUSH1 0x0 DUP3 DUP3 SLOAD PUSH2 0xCCD SWAP2 SWAP1 PUSH2 0x1409 JUMP JUMPDEST SWAP3 POP POP DUP2 SWAP1 SSTORE POP DUP6 PUSH1 0x2 PUSH1 0x0 DUP3 DUP3 SLOAD PUSH2 0xCE6 SWAP2 SWAP1 PUSH2 0x1363 JUMP JUMPDEST SWAP1 SWAP2 SSTORE POP POP JUMPDEST PUSH2 0xCF8 DUP10 CALLER ADDRESS DUP12 PUSH2 0x112D JUMP JUMPDEST PUSH2 0xD03 DUP5 CALLER DUP9 PUSH2 0x1001 JUMP JUMPDEST PUSH1 0x40 DUP1 MLOAD PUSH1 0x1 PUSH1 0x1 PUSH1 0xA0 SHL SUB DUP12 DUP2 AND DUP3 MSTORE PUSH1 0x20 DUP3 ADD DUP12 SWAP1 MSTORE DUP7 AND DUP2 DUP4 ADD MSTORE PUSH1 0x60 DUP2 ADD DUP9 SWAP1 MSTORE SWAP1 MLOAD CALLER SWAP2 PUSH32 0x5380CF97D8F645D3C4896DA60C053458DCA03A3A31CEC642AC80E1DDF0D8D02A SWAP2 SWAP1 DUP2 SWAP1 SUB PUSH1 0x80 ADD SWAP1 LOG2 POP POP PUSH1 0x1 PUSH1 0x7 SSTORE POP SWAP2 SWAP6 SWAP5 POP POP POP POP POP JUMP JUMPDEST PUSH1 0x0 PUSH2 0xD76 CALLER DUP5 DUP5 PUSH2 0xE9C JUMP JUMPDEST POP PUSH1 0x1 SWAP3 SWAP2 POP POP JUMP JUMPDEST PUSH1 0x0 DUP1 SLOAD PUSH1 0x1 PUSH1 0x1 PUSH1 0xA0 SHL SUB DUP5 DUP2 AND SWAP2 AND EQ DUP1 PUSH2 0xDA9 JUMPI POP PUSH1 0x1 SLOAD PUSH1 0x1 PUSH1 0x1 PUSH1 0xA0 SHL SUB DUP5 DUP2 AND SWAP2 AND EQ JUMPDEST PUSH2 0xDEB JUMPI PUSH1 0x40 MLOAD PUSH3 0x461BCD PUSH1 0xE5 SHL DUP2 MSTORE PUSH1 0x20 PUSH1 0x4 DUP3 ADD MSTORE PUSH1 0x13 PUSH1 0x24 DUP3 ADD MSTORE PUSH19 0x2837B7B61D1034B73B30B634B2103A37B5B2B7 PUSH1 0x69 SHL PUSH1 0x44 DUP3 ADD MSTORE PUSH1 0x64 ADD PUSH2 0x372 JUMP JUMPDEST PUSH1 0x0 PUSH1 0x2 SLOAD GT DUP1 ISZERO PUSH2 0xDFF JUMPI POP PUSH1 0x0 PUSH1 0x3 SLOAD GT JUMPDEST PUSH2 0xE1B JUMPI PUSH1 0x40 MLOAD PUSH3 0x461BCD PUSH1 0xE5 SHL DUP2 MSTORE PUSH1 0x4 ADD PUSH2 0x372 SWAP1 PUSH2 0x13DD JUMP JUMPDEST PUSH1 0x0 DUP1 SLOAD PUSH1 0x1 PUSH1 0x1 PUSH1 0xA0 SHL SUB DUP6 DUP2 AND SWAP2 AND EQ SWAP1 DUP2 PUSH2 0xE3B JUMPI PUSH1 0x3 SLOAD PUSH2 0xE3F JUMP JUMPDEST PUSH1 0x2 SLOAD JUMPDEST SWAP1 POP PUSH1 0x0 DUP3 PUSH2 0xE50 JUMPI PUSH1 0x2 SLOAD PUSH2 0xE54 JUMP JUMPDEST PUSH1 0x3 SLOAD JUMPDEST SWAP1 POP PUSH1 0x0 PUSH2 0xE64 PUSH2 0x3E5 DUP8 PUSH2 0x13A4 JUMP JUMPDEST SWAP1 POP DUP1 PUSH2 0xE73 PUSH2 0x3E8 DUP6 PUSH2 0x13A4 JUMP JUMPDEST PUSH2 0xE7D SWAP2 SWAP1 PUSH2 0x1409 JUMP JUMPDEST PUSH2 0xE87 DUP4 DUP4 PUSH2 0x13A4 JUMP JUMPDEST PUSH2 0xE91 SWAP2 SWAP1 PUSH2 0x13BB JUMP JUMPDEST SWAP8 SWAP7 POP POP POP POP POP POP POP JUMP JUMPDEST PUSH1 0x1 PUSH1 0x1 PUSH1 0xA0 SHL SUB DUP3 AND PUSH2 0xEEB JUMPI PUSH1 0x40 MLOAD PUSH3 0x461BCD PUSH1 0xE5 SHL DUP2 MSTORE PUSH1 0x20 PUSH1 0x4 DUP3 ADD MSTORE PUSH1 0x16 PUSH1 0x24 DUP3 ADD MSTORE PUSH22 0x506F6F6C3A207472616E7366657220746F207A65726F PUSH1 0x50 SHL PUSH1 0x44 DUP3 ADD MSTORE PUSH1 0x64 ADD PUSH2 0x372 JUMP JUMPDEST PUSH1 0x1 PUSH1 0x1 PUSH1 0xA0 SHL SUB DUP4 AND PUSH1 0x0 SWAP1 DUP2 MSTORE PUSH1 0x5 PUSH1 0x20 MSTORE PUSH1 0x40 SWAP1 KECCAK256 SLOAD DUP2 GT ISZERO PUSH2 0xF53 JUMPI PUSH1 0x40 MLOAD PUSH3 0x461BCD PUSH1 0xE5 SHL DUP2 MSTORE PUSH1 0x20 PUSH1 0x4 DUP3 ADD MSTORE PUSH1 0x1D PUSH1 0x24 DUP3 ADD MSTORE PUSH32 0x506F6F6C3A20696E73756666696369656E74204C502062616C616E6365000000 PUSH1 0x44 DUP3 ADD MSTORE PUSH1 0x64 ADD PUSH2 0x372 JUMP JUMPDEST PUSH1 0x1 PUSH1 0x1 PUSH1 0xA0 SHL SUB DUP4 AND PUSH1 0x0 SWAP1 DUP2 MSTORE PUSH1 0x5 PUSH1 0x20 MSTORE PUSH1 0x40 DUP2 KECCAK256 DUP1 SLOAD DUP4 SWAP3 SWAP1 PUSH2 0xF7B SWAP1 DUP5 SWAP1 PUSH2 0x1363 JUMP JUMPDEST SWAP1 SWAP2 SSTORE POP POP PUSH1 0x1 PUSH1 0x1 PUSH1 0xA0 SHL SUB DUP3 AND PUSH1 0x0 SWAP1 DUP2 MSTORE PUSH1 0x5 PUSH1 0x20 MSTORE PUSH1 0x40 DUP2 KECCAK256 DUP1 SLOAD DUP4 SWAP3 SWAP1 PUSH2 0xFA8 SWAP1 DUP5 SWAP1 PUSH2 0x1409 JUMP JUMPDEST SWAP3 POP POP DUP2 SWAP1 SSTORE POP DUP2 PUSH1 0x1 PUSH1 0x1 PUSH1 0xA0 SHL SUB AND DUP4 PUSH1 0x1 PUSH1 0x1 PUSH1 0xA0 SHL SUB AND PUSH32 0xDDF252AD1BE2C89B69C2B068FC378DAA952BA7F163C4A11628F55A4DF523B3EF DUP4 PUSH1 0x40 MLOAD PUSH2 0xFF4 SWAP2 DUP2 MSTORE PUSH1 0x20 ADD SWAP1 JUMP JUMPDEST PUSH1 0x40 MLOAD DUP1 SWAP2 SUB SWAP1 LOG3 POP POP POP JUMP JUMPDEST PUSH1 0x40 MLOAD PUSH4 0xA9059CBB PUSH1 0xE0 SHL DUP2 MSTORE PUSH1 0x1 PUSH1 0x1 PUSH1 0xA0 SHL SUB DUP4 DUP2 AND PUSH1 0x4 DUP4 ADD MSTORE PUSH1 0x24 DUP3 ADD DUP4 SWAP1 MSTORE DUP5 AND SWAP1 PUSH4 0xA9059CBB SWAP1 PUSH1 0x44 ADD PUSH1 0x20 PUSH1 0x40 MLOAD DUP1 DUP4 SUB DUP2 PUSH1 0x0 DUP8 GAS CALL ISZERO DUP1 ISZERO PUSH2 0x1050 JUMPI RETURNDATASIZE PUSH1 0x0 DUP1 RETURNDATACOPY RETURNDATASIZE PUSH1 0x0 REVERT JUMPDEST POP POP POP POP PUSH1 0x40 MLOAD RETURNDATASIZE PUSH1 0x1F NOT PUSH1 0x1F DUP3 ADD AND DUP3 ADD DUP1 PUSH1 0x40 MSTORE POP DUP2 ADD SWAP1 PUSH2 0x1074 SWAP2 SWAP1 PUSH2 0x141C JUMP JUMPDEST PUSH2 0x10B8 JUMPI PUSH1 0x40 MLOAD PUSH3 0x461BCD PUSH1 0xE5 SHL DUP2 MSTORE PUSH1 0x20 PUSH1 0x4 DUP3 ADD MSTORE PUSH1 0x15 PUSH1 0x24 DUP3 ADD MSTORE PUSH21 0x141BDBDB0E881D1C985B9CD9995C8819985A5B1959 PUSH1 0x5A SHL PUSH1 0x44 DUP3 ADD MSTORE PUSH1 0x64 ADD PUSH2 0x372 JUMP JUMPDEST POP POP POP JUMP JUMPDEST PUSH1 0x0 PUSH1 0x3 DUP3 GT ISZERO PUSH2 0x111E JUMPI POP DUP1 PUSH1 0x0 PUSH2 0x10D7 PUSH1 0x2 DUP4 PUSH2 0x13BB JUMP JUMPDEST PUSH2 0x10E2 SWAP1 PUSH1 0x1 PUSH2 0x1409 JUMP JUMPDEST SWAP1 POP JUMPDEST DUP2 DUP2 LT ISZERO PUSH2 0x1118 JUMPI SWAP1 POP DUP1 PUSH1 0x2 DUP2 PUSH2 0x10FD DUP2 DUP7 PUSH2 0x13BB JUMP JUMPDEST PUSH2 0x1107 SWAP2 SWAP1 PUSH2 0x1409 JUMP JUMPDEST PUSH2 0x1111 SWAP2 SWAP1 PUSH2 0x13BB JUMP JUMPDEST SWAP1 POP PUSH2 0x10E5 JUMP JUMPDEST POP SWAP2 SWAP1 POP JUMP JUMPDEST DUP2 ISZERO PUSH2 0x1128 JUMPI POP PUSH1 0x1 JUMPDEST SWAP2 SWAP1 POP JUMP JUMPDEST PUSH1 0x40 MLOAD PUSH4 0x23B872DD PUSH1 0xE0 SHL DUP2 MSTORE PUSH1 0x1 PUSH1 0x1 PUSH1 0xA0 SHL SUB DUP5 DUP2 AND PUSH1 0x4 DUP4 ADD MSTORE DUP4 DUP2 AND PUSH1 0x24 DUP4 ADD MSTORE PUSH1 0x44 DUP3 ADD DUP4 SWAP1 MSTORE DUP6 AND SWAP1 PUSH4 0x23B872DD SWAP1 PUSH1 0x64 ADD PUSH1 0x20 PUSH1 0x40 MLOAD DUP1 DUP4 SUB DUP2 PUSH1 0x0 DUP8 GAS CALL ISZERO DUP1 ISZERO PUSH2 0x1184 JUMPI RETURNDATASIZE PUSH1 0x0 DUP1 RETURNDATACOPY RETURNDATASIZE PUSH1 0x0 REVERT JUMPDEST POP POP POP POP PUSH1 0x40 MLOAD RETURNDATASIZE PUSH1 0x1F NOT PUSH1 0x1F DUP3 ADD AND DUP3 ADD DUP1 PUSH1 0x40 MSTORE POP DUP2 ADD SWAP1 PUSH2 0x11A8 SWAP2 SWAP1 PUSH2 0x141C JUMP JUMPDEST PUSH2 0x11F4 JUMPI PUSH1 0x40 MLOAD PUSH3 0x461BCD PUSH1 0xE5 SHL DUP2 MSTORE PUSH1 0x20 PUSH1 0x4 DUP3 ADD MSTORE PUSH1 0x19 PUSH1 0x24 DUP3 ADD MSTORE PUSH32 0x506F6F6C3A207472616E7366657246726F6D206661696C656400000000000000 PUSH1 0x44 DUP3 ADD MSTORE PUSH1 0x64 ADD PUSH2 0x372 JUMP JUMPDEST POP POP POP POP JUMP JUMPDEST DUP1 CALLDATALOAD PUSH1 0x1 PUSH1 0x1 PUSH1 0xA0 SHL SUB DUP2 AND DUP2 EQ PUSH2 0x1128 JUMPI PUSH1 0x0 DUP1 REVERT JUMPDEST PUSH1 0x0 DUP1 PUSH1 0x40 DUP4 DUP6 SUB SLT ISZERO PUSH2 0x1224 JUMPI PUSH1 0x0 DUP1 REVERT JUMPDEST PUSH2 0x122D DUP4 PUSH2 0x11FA JUMP JUMPDEST SWAP5 PUSH1 0x20 SWAP4 SWAP1 SWAP4 ADD CALLDATALOAD SWAP4 POP POP POP JUMP JUMPDEST PUSH1 0x0 DUP1 PUSH1 0x0 PUSH1 0x60 DUP5 DUP7 SUB SLT ISZERO PUSH2 0x1250 JUMPI PUSH1 0x0 DUP1 REVERT JUMPDEST PUSH2 0x1259 DUP5 PUSH2 0x11FA JUMP JUMPDEST SWAP3 POP PUSH2 0x1267 PUSH1 0x20 DUP6 ADD PUSH2 0x11FA JUMP JUMPDEST SWAP2 POP PUSH1 0x40 DUP5 ADD CALLDATALOAD SWAP1 POP SWAP3 POP SWAP3 POP SWAP3 JUMP JUMPDEST PUSH1 0x0 PUSH1 0x20 DUP3 DUP5 SUB SLT ISZERO PUSH2 0x1289 JUMPI PUSH1 0x0 DUP1 REVERT JUMPDEST PUSH2 0x1292 DUP3 PUSH2 0x11FA JUMP JUMPDEST SWAP4 SWAP3 POP POP POP JUMP JUMPDEST PUSH1 0x0 DUP1 PUSH1 0x0 PUSH1 0x60 DUP5 DUP7 SUB SLT ISZERO PUSH2 0x12AE JUMPI PUSH1 0x0 DUP1 REVERT JUMPDEST POP POP DUP2 CALLDATALOAD SWAP4 PUSH1 0x20 DUP4 ADD CALLDATALOAD SWAP4 POP PUSH1 0x40 SWAP1 SWAP3 ADD CALLDATALOAD SWAP2 SWAP1 POP JUMP JUMPDEST PUSH1 0x0 DUP1 PUSH1 0x40 DUP4 DUP6 SUB SLT ISZERO PUSH2 0x12D8 JUMPI PUSH1 0x0 DUP1 REVERT JUMPDEST POP POP DUP1 CALLDATALOAD SWAP3 PUSH1 0x20 SWAP1 SWAP2 ADD CALLDATALOAD SWAP2 POP JUMP JUMPDEST PUSH1 0x0 DUP1 PUSH1 0x0 PUSH1 0x60 DUP5 DUP7 SUB SLT ISZERO PUSH2 0x12FC JUMPI PUSH1 0x0 DUP1 REVERT JUMPDEST PUSH2 0x1305 DUP5 PUSH2 0x11FA JUMP JUMPDEST SWAP6 PUSH1 0x20 DUP6 ADD CALLDATALOAD SWAP6 POP PUSH1 0x40 SWAP1 SWAP5 ADD CALLDATALOAD SWAP4 SWAP3 POP POP POP JUMP JUMPDEST PUSH1 0x0 DUP1 PUSH1 0x40 DUP4 DUP6 SUB SLT ISZERO PUSH2 0x132D JUMPI PUSH1 0x0 DUP1 REVERT JUMPDEST PUSH2 0x1336 DUP4 PUSH2 0x11FA JUMP JUMPDEST SWAP2 POP PUSH2 0x1344 PUSH1 0x20 DUP5 ADD PUSH2 0x11FA JUMP JUMPDEST SWAP1 POP SWAP3 POP SWAP3 SWAP1 POP JUMP JUMPDEST PUSH4 0x4E487B71 PUSH1 0xE0 SHL PUSH1 0x0 MSTORE PUSH1 0x11 PUSH1 0x4 MSTORE PUSH1 0x24 PUSH1 0x0 REVERT JUMPDEST DUP2 DUP2 SUB DUP2 DUP2 GT ISZERO PUSH2 0x2FD JUMPI PUSH2 0x2FD PUSH2 0x134D JUMP JUMPDEST PUSH1 0x20 DUP1 DUP3 MSTORE PUSH1 0x14 SWAP1 DUP3 ADD MSTORE PUSH20 0x141BDBDB0E881C99595B9D1C985B9D0818D85B1B PUSH1 0x62 SHL PUSH1 0x40 DUP3 ADD MSTORE PUSH1 0x60 ADD SWAP1 JUMP JUMPDEST DUP1 DUP3 MUL DUP2 ISZERO DUP3 DUP3 DIV DUP5 EQ OR PUSH2 0x2FD JUMPI PUSH2 0x2FD PUSH2 0x134D JUMP JUMPDEST PUSH1 0x0 DUP3 PUSH2 0x13D8 JUMPI PUSH4 0x4E487B71 PUSH1 0xE0 SHL PUSH1 0x0 MSTORE PUSH1 0x12 PUSH1 0x4 MSTORE PUSH1 0x24 PUSH1 0x0 REVERT JUMPDEST POP DIV SWAP1 JUMP JUMPDEST PUSH1 0x20 DUP1 DUP3 MSTORE PUSH1 0x12 SWAP1 DUP3 ADD MSTORE PUSH18 0x506F6F6C3A206E6F206C6971756964697479 PUSH1 0x70 SHL PUSH1 0x40 DUP3 ADD MSTORE PUSH1 0x60 ADD SWAP1 JUMP JUMPDEST DUP1 DUP3 ADD DUP1 DUP3 GT ISZERO PUSH2 0x2FD JUMPI PUSH2 0x2FD PUSH2 0x134D JUMP JUMPDEST PUSH1 0x0 PUSH1 0x20 DUP3 DUP5 SUB SLT ISZERO PUSH2 0x142E JUMPI PUSH1 0x0 DUP1 REVERT JUMPDEST DUP2 MLOAD DUP1 ISZERO ISZERO DUP2 EQ PUSH2 0x1292 JUMPI PUSH1 0x0 DUP1 REVERT INVALID LOG2 PUSH5 0x6970667358 0x22 SLT KECCAK256 0xDA SLT 0xB8 NOT PUSH23 0xA457EF564033433ECEEAC8031A5AD1169705772BF940E1 0x26 0x4D PUSH26 0xC564736F6C634300081400330000000000000000000000000000 "},"methodIdentifiers":{"FEE_DENOMINATOR()":"d73792a9","FEE_NUMERATOR()":"41cd47bf","MINIMUM_LIQUIDITY()":"ba9a7a56","addLiquidity(uint256,uint256)":"9cd441da","allowance(address,address)":"dd62ed3e","approve(address,uint256)":"095ea7b3","balanceOf(address)":"70a08231","getAmountOut(address,uint256)":"ca706bcf","getPrice()":"98d5fdca","removeLiquidity(uint256,uint256,uint256)":"857620e1","reserveA()":"dc5fa6c5","reserveB()":"19e36f3b","swap(address,uint256,uint256)":"9f1d0f59","tokenA()":"0fc63d10","tokenB()":"5f64b55b","totalSupply()":"18160ddd","transfer(address,uint256)":"a9059cbb","transferFrom(address,address,uint256)":"23b872dd"}}}}}