{"contracts/Faucet.sol":{"Faucet":{"abi":[{"anonymous":false,"inputs":[{"indexed":true,"internalType":"address","name":"user","type":"address"},{"indexed":true,"internalType":"address","name":"token","type":"address"},{"indexed":false,"internalType":"uint256","name":"amount","type":"uint256"}],"name":"Claimed","type":"event"},{"inputs":[],"name":"CLAIM_AMOUNT","outputs":[{"internalType":"uint256","name":"","type":"uint256"}],"stateMutability":"view","type":"function"},{"inputs":[],"name":"COOLDOWN","outputs":[{"internalType":"uint256","name":"","type":"uint256"}],"stateMutability":"view","type":"function"},{"inputs":[{"internalType":"address","name":"token","type":"address"}],"name":"claim","outputs":[],"stateMutability":"nonpayable","type":"function"},{"inputs":[{"internalType":"address","name":"tokenA","type":"address"},{"internalType":"address","name":"tokenB","type":"address"}],"name":"claimBoth","outputs":[],"stateMutability":"nonpayable","type":"function"},{"inputs":[{"internalType":"address","name":"","type":"address"},{"internalType":"address","name":"","type":"address"}],"name":"lastClaimed","outputs":[{"internalType":"uint256","name":"","type":"uint256"}],"stateMutability":"view","type":"function"},{"inputs":[{"internalType":"address","name":"token","type":"address"},{"internalType":"address","name":"user","type":"address"}],"name":"timeUntilNextClaim","outputs":[{"internalType":"uint256","name":"","type":"uint256"}],"stateMutability":"view","type":"function"}],"evm":{"bytecode":{"linkReferences":{},"object":"608060405234801561001057600080fd5b506103b4806100206000396000f3fe608060405234801561001057600080fd5b50600436106100625760003560e01c806305141cd0146100675780631e83409a146100a1578063270ef385146100b65780632b5c7d47146100c65780639b49c883146100d9578063a2724a4d146100ec575b600080fd5b61008f6100753660046102ed565b600060208181529281526040808220909352908152205481565b60405190815260200160405180910390f35b6100b46100af366004610320565b6100f6565b005b61008f68056bc75e2d6310000081565b61008f6100d43660046102ed565b61025e565b6100b46100e73660046102ed565b6102bb565b61008f6201518081565b6001600160a01b038116600090815260208181526040808320338452909152812054610126906201518090610358565b90508042101561018d5760405162461bcd60e51b815260206004820152602860248201527f4661756365743a20636f6f6c646f776e206163746976652c207472792061676160448201526734b7103630ba32b960c11b606482015260840160405180910390fd5b6001600160a01b0382166000818152602081815260408083203380855292529182902042905590516340c10f1960e01b8152600481019190915268056bc75e2d6310000060248201526340c10f1990604401600060405180830381600087803b1580156101f957600080fd5b505af115801561020d573d6000803e3d6000fd5b505060405168056bc75e2d6310000081526001600160a01b03851692503391507ff7a40077ff7a04c7e61f6f26fb13774259ddf1b6bce9ecf26a8276cdd39926839060200160405180910390a35050565b6001600160a01b038083166000908152602081815260408083209385168352929052908120548190610294906201518090610358565b90508042106102a75760009150506102b5565b6102b1428261036b565b9150505b92915050565b6102c4826100f6565b6102cd816100f6565b5050565b80356001600160a01b03811681146102e857600080fd5b919050565b6000806040838503121561030057600080fd5b610309836102d1565b9150610317602084016102d1565b90509250929050565b60006020828403121561033257600080fd5b61033b826102d1565b9392505050565b634e487b7160e01b600052601160045260246000fd5b808201808211156102b5576102b5610342565b818103818111156102b5576102b561034256fea2646970667358221220683243307eb01b249ef5112a89addea73808262ae0c0e3db168be994147f6e7b64736f6c63430008140033","opcodes":"PUSH1 0x80 PUSH1 0x40 MSTORE CALLVALUE DUP1 ISZERO PUSH2 0x10 JUMPI PUSH1 0x0 DUP1 REVERT JUMPDEST POP PUSH2 0x3B4 DUP1 PUSH2 0x20 PUSH1 0x0 CODECOPY PUSH1 0x0 RETURN INVALID PUSH1 0x80 PUSH1 0x40 MSTORE CALLVALUE DUP1 ISZERO PUSH2 0x10 JUMPI PUSH1 0x0 DUP1 REVERT JUMPDEST POP PUSH1 0x4 CALLDATASIZE LT PUSH2 0x62 JUMPI PUSH1 0x0 CALLDATALOAD PUSH1 0xE0 SHR DUP1 PUSH4 0x5141CD0 EQ PUSH2 0x67 JUMPI DUP1 PUSH4 0x1E83409A EQ PUSH2 0xA1 JUMPI DUP1 PUSH4 0x270EF385 EQ PUSH2 0xB6 JUMPI DUP1 PUSH4 0x2B5C7D47 EQ PUSH2 0xC6 JUMPI DUP1 PUSH4 0x9B49C883 EQ PUSH2 0xD9 JUMPI DUP1 PUSH4 0xA2724A4D EQ PUSH2 0xEC JUMPI JUMPDEST PUSH1 0x0 DUP1 REVERT JUMPDEST PUSH2 0x8F PUSH2 0x75 CALLDATASIZE PUSH1 0x4 PUSH2 0x2ED JUMP JUMPDEST PUSH1 0x0 PUSH1 0x20 DUP2 DUP2 MSTORE SWAP3 DUP2 MSTORE PUSH1 0x40 DUP1 DUP3 KECCAK256 SWAP1 SWAP4 MSTORE SWAP1 DUP2 MSTORE KECCAK256 SLOAD DUP2 JUMP JUMPDEST PUSH1 0x40 MLOAD SWAP1 DUP2 MSTORE PUSH1 0x20 ADD PUSH1 0x40 MLOAD DUP1 SWAP2 SUB SWAP1 RETURN JUMPDEST PUSH2 0xB4 PUSH2 0xAF CALLDATASIZE PUSH1 0x4 PUSH2 0x320 JUMP JUMPDEST PUSH2 0xF6 JUMP JUMPDEST STOP JUMPDEST PUSH2 0x8F PUSH9 0x56BC75E2D63100000 DUP2 JUMP JUMPDEST PUSH2 0x8F PUSH2 0xD4 CALLDATASIZE PUSH1 0x4 PUSH2 0x2ED JUMP JUMPDEST PUSH2 0x25E JUMP JUMPDEST PUSH2 0xB4 PUSH2 0xE7 CALLDATASIZE PUSH1 0x4 PUSH2 0x2ED JUMP JUMPDEST PUSH2 0x2BB JUMP JUMPDEST PUSH2 0x8F PUSH3 0x15180 DUP2 JUMP JUMPDEST PUSH1 0x1 PUSH1 0x1 PUSH1 0xA0 SHL SUB DUP2 AND PUSH1 0x0 SWAP1 DUP2 MSTORE PUSH1 0x20 DUP2 DUP2 MSTORE PUSH1 0x40 DUP1 DUP4 KECCAK256 CALLER DUP5 MSTORE SWAP1 SWAP2 MSTORE DUP2 KECCAK256 SLOAD PUSH2 0x126 SWAP1 PUSH3 0x15180 SWAP1 PUSH2 0x358 JUMP JUMPDEST SWAP1 POP DUP1 TIMESTAMP LT ISZERO PUSH2 0x18D JUMPI PUSH1 0x40 MLOAD PUSH3 0x461BCD PUSH1 0xE5 SHL DUP2 MSTORE PUSH1 0x20 PUSH1 0x4 DUP3 ADD MSTORE PUSH1 0x28 PUSH1 0x24 DUP3 ADD MSTORE PUSH32 0x4661756365743A20636F6F6C646F776E206163746976652C2074727920616761 PUSH1 0x44 DUP3 ADD MSTORE PUSH8 0x34B7103630BA32B9 PUSH1 0xC1 SHL PUSH1 0x64 DUP3 ADD MSTORE PUSH1 0x84 ADD PUSH1 0x40 MLOAD DUP1 SWAP2 SUB SWAP1 REVERT JUMPDEST PUSH1 0x1 PUSH1 0x1 PUSH1 0xA0 SHL SUB DUP3 AND PUSH1 0x0 DUP2 DUP2 MSTORE PUSH1 0x20 DUP2 DUP2 MSTORE PUSH1 0x40 DUP1 DUP4 KECCAK256 CALLER DUP1 DUP6 MSTORE SWAP3 MSTORE SWAP2 DUP3 SWAP1 KECCAK256 TIMESTAMP SWAP1 SSTORE SWAP1 MLOAD PUSH4 0x40C10F19 PUSH1 0xE0 SHL DUP2 MSTORE PUSH1 0x4 DUP2 ADD SWAP2 SWAP1 SWAP2 MSTORE PUSH9 0x56BC75E2D63100000 PUSH1 0x24 DUP3 ADD MSTORE PUSH4 0x40C10F19 SWAP1 PUSH1 0x44 ADD PUSH1 0x0 PUSH1 0x40 MLOAD DUP1 DUP4 SUB DUP2 PUSH1 0x0 DUP8 DUP1 EXTCODESIZE ISZERO DUP1 ISZERO PUSH2 0x1F9 JUMPI PUSH1 0x0 DUP1 REVERT JUMPDEST POP GAS CALL ISZERO DUP1 ISZERO PUSH2 0x20D JUMPI RETURNDATASIZE PUSH1 0x0 DUP1 RETURNDATACOPY RETURNDATASIZE PUSH1 0x0 REVERT JUMPDEST POP POP PUSH1 0x40 MLOAD PUSH9 0x56BC75E2D63100000 DUP2 MSTORE PUSH1 0x1 PUSH1 0x1 PUSH1 0xA0 SHL SUB DUP6 AND SWAP3 POP CALLER SWAP2 POP PUSH32 0xF7A40077FF7A04C7E61F6F26FB13774259DDF1B6BCE9ECF26A8276CDD3992683 SWAP1 PUSH1 0x20 ADD PUSH1 0x40 MLOAD DUP1 SWAP2 SUB SWAP1 LOG3 POP POP JUMP JUMPDEST PUSH1 0x1 PUSH1 0x1 PUSH1 0xA0 SHL SUB DUP1 DUP4 AND PUSH1 0x0 SWAP1 DUP2 MSTORE PUSH1 0x20 DUP2 DUP2 MSTORE PUSH1 0x40 DUP1 DUP4 KECCAK256 SWAP4 DUP6 AND DUP4 MSTORE SWAP3 SWAP1 MSTORE SWAP1 DUP2 KECCAK256 SLOAD DUP2 SWAP1 PUSH2 0x294 SWAP1 PUSH3 0x15180 SWAP1 PUSH2 0x358 JUMP JUMPDEST SWAP1 POP DUP1 TIMESTAMP LT PUSH2 0x2A7 JUMPI PUSH1 0x0 SWAP2 POP POP PUSH2 0x2B5 JUMP JUMPDEST PUSH2 0x2B1 TIMESTAMP DUP3 PUSH2 0x36B JUMP JUMPDEST SWAP2 POP POP JUMPDEST SWAP3 SWAP2 POP POP JUMP JUMPDEST PUSH2 0x2C4 DUP3 PUSH2 0xF6 JUMP JUMPDEST PUSH2 0x2CD DUP2 PUSH2 0xF6 JUMP JUMPDEST POP POP JUMP JUMPDEST DUP1 CALLDATALOAD PUSH1 0x1 PUSH1 0x1 PUSH1 0xA0 SHL SUB DUP2 AND DUP2 EQ PUSH2 0x2E8 JUMPI PUSH1 0x0 DUP1 REVERT JUMPDEST SWAP2 SWAP1 POP JUMP JUMPDEST PUSH1 0x0 DUP1 PUSH1 0x40 DUP4 DUP6 SUB SLT ISZERO PUSH2 0x300 JUMPI PUSH1 0x0 DUP1 REVERT JUMPDEST PUSH2 0x309 DUP4 PUSH2 0x2D1 JUMP JUMPDEST SWAP2 POP PUSH2 0x317 PUSH1 0x20 DUP5 ADD PUSH2 0x2D1 JUMP JUMPDEST SWAP1 POP SWAP3 POP SWAP3 SWAP1 POP JUMP JUMPDEST PUSH1 0x0 PUSH1 0x20 DUP3 DUP5 SUB SLT ISZERO PUSH2 0x332 JUMPI PUSH1 0x0 DUP1 REVERT JUMPDEST PUSH2 0x33B DUP3 PUSH2 0x2D1 JUMP JUMPDEST SWAP4 SWAP3 POP POP POP JUMP JUMPDEST PUSH4 0x4E487B71 PUSH1 0xE0 SHL PUSH1 0x0 MSTORE PUSH1 0x11 PUSH1 0x4 MSTORE PUSH1 0x24 PUSH1 0x0 REVERT JUMPDEST DUP1 DUP3 ADD DUP1 DUP3 GT ISZERO PUSH2 0x2B5 JUMPI PUSH2 0x2B5 PUSH2 0x342 JUMP JUMPDEST DUP2 DUP2 SUB DUP2 DUP2 GT ISZERO PUSH2 0x2B5 JUMPI PUSH2 0x2B5 PUSH2 0x342 JUMP INVALID LOG2 PUSH5 0x6970667358 0x22 SLT KECCAK256 PUSH9 0x3243307EB01B249EF5 GT 0x2A DUP10 0xAD 0xDE 0xA7 CODESIZE ADDMOD 0x26 0x2A 0xE0 0xC0 0xE3 0xDB AND DUP12 0xE9 SWAP5 EQ PUSH32 0x6E7B64736F6C6343000814003300000000000000000000000000000000000000 "},"methodIdentifiers":{"CLAIM_AMOUNT()":"270ef385","COOLDOWN()":"a2724a4d","claim(address)":"1e83409a","claimBoth(address,address)":"9b49c883","lastClaimed(address,address)":"05141cd0","timeUntilNextClaim(address,address)":"2b5c7d47"}}}}}