{
  "_format": "hh-sol-artifact-1",
  "contractName": "SimpleLiquidityPoolV2",
  "sourceName": "contracts/SimpleLiquidityPoolV2.sol",
  "abi": [
    {
      "inputs": [
        {
          "internalType": "address",
          "name": "_tokenA",
          "type": "address"
        },
        {
          "internalType": "address",
          "name": "_tokenB",
          "type": "address"
        }
      ],
      "stateMutability": "nonpayable",
      "type": "constructor"
    },
    {
      "anonymous": false,
      "inputs": [
        {
          "indexed": true,
          "internalType": "address",
          "name": "owner",
          "type": "address"
        },
        {
          "indexed": true,
          "internalType": "address",
          "name": "spender",
          "type": "address"
        },
        {
          "indexed": false,
          "internalType": "uint256",
          "name": "value",
          "type": "uint256"
        }
      ],
      "name": "Approval",
      "type": "event"
    },
    {
      "anonymous": false,
      "inputs": [
        {
          "indexed": true,
          "internalType": "address",
          "name": "provider",
          "type": "address"
        },
        {
          "indexed": false,
          "internalType": "uint256",
          "name": "amountA",
          "type": "uint256"
        },
        {
          "indexed": false,
          "internalType": "uint256",
          "name": "amountB",
          "type": "uint256"
        },
        {
          "indexed": false,
          "internalType": "uint256",
          "name": "lpTokensMinted",
          "type": "uint256"
        }
      ],
      "name": "LiquidityAdded",
      "type": "event"
    },
    {
      "anonymous": false,
      "inputs": [
        {
          "indexed": true,
          "internalType": "address",
          "name": "provider",
          "type": "address"
        },
        {
          "indexed": false,
          "internalType": "uint256",
          "name": "amountA",
          "type": "uint256"
        },
        {
          "indexed": false,
          "internalType": "uint256",
          "name": "amountB",
          "type": "uint256"
        },
        {
          "indexed": false,
          "internalType": "uint256",
          "name": "lpTokensBurned",
          "type": "uint256"
        }
      ],
      "name": "LiquidityRemoved",
      "type": "event"
    },
    {
      "anonymous": false,
      "inputs": [
        {
          "indexed": true,
          "internalType": "address",
          "name": "trader",
          "type": "address"
        },
        {
          "indexed": false,
          "internalType": "address",
          "name": "tokenIn",
          "type": "address"
        },
        {
          "indexed": false,
          "internalType": "uint256",
          "name": "amountIn",
          "type": "uint256"
        },
        {
          "indexed": false,
          "internalType": "address",
          "name": "tokenOut",
          "type": "address"
        },
        {
          "indexed": false,
          "internalType": "uint256",
          "name": "amountOut",
          "type": "uint256"
        }
      ],
      "name": "Swap",
      "type": "event"
    },
    {
      "anonymous": false,
      "inputs": [
        {
          "indexed": true,
          "internalType": "address",
          "name": "from",
          "type": "address"
        },
        {
          "indexed": true,
          "internalType": "address",
          "name": "to",
          "type": "address"
        },
        {
          "indexed": false,
          "internalType": "uint256",
          "name": "value",
          "type": "uint256"
        }
      ],
      "name": "Transfer",
      "type": "event"
    },
    {
      "inputs": [],
      "name": "FEE_DENOMINATOR",
      "outputs": [
        {
          "internalType": "uint256",
          "name": "",
          "type": "uint256"
        }
      ],
      "stateMutability": "view",
      "type": "function"
    },
    {
      "inputs": [],
      "name": "FEE_NUMERATOR",
      "outputs": [
        {
          "internalType": "uint256",
          "name": "",
          "type": "uint256"
        }
      ],
      "stateMutability": "view",
      "type": "function"
    },
    {
      "inputs": [
        {
          "internalType": "uint256",
          "name": "amountA",
          "type": "uint256"
        },
        {
          "internalType": "uint256",
          "name": "amountB",
          "type": "uint256"
        }
      ],
      "name": "addLiquidity",
      "outputs": [
        {
          "internalType": "uint256",
          "name": "lpTokens",
          "type": "uint256"
        }
      ],
      "stateMutability": "nonpayable",
      "type": "function"
    },
    {
      "inputs": [
        {
          "internalType": "address",
          "name": "",
          "type": "address"
        },
        {
          "internalType": "address",
          "name": "",
          "type": "address"
        }
      ],
      "name": "allowance",
      "outputs": [
        {
          "internalType": "uint256",
          "name": "",
          "type": "uint256"
        }
      ],
      "stateMutability": "view",
      "type": "function"
    },
    {
      "inputs": [
        {
          "internalType": "address",
          "name": "spender",
          "type": "address"
        },
        {
          "internalType": "uint256",
          "name": "amount",
          "type": "uint256"
        }
      ],
      "name": "approve",
      "outputs": [
        {
          "internalType": "bool",
          "name": "",
          "type": "bool"
        }
      ],
      "stateMutability": "nonpayable",
      "type": "function"
    },
    {
      "inputs": [
        {
          "internalType": "address",
          "name": "",
          "type": "address"
        }
      ],
      "name": "balanceOf",
      "outputs": [
        {
          "internalType": "uint256",
          "name": "",
          "type": "uint256"
        }
      ],
      "stateMutability": "view",
      "type": "function"
    },
    {
      "inputs": [
        {
          "internalType": "address",
          "name": "tokenIn",
          "type": "address"
        },
        {
          "internalType": "uint256",
          "name": "amountIn",
          "type": "uint256"
        }
      ],
      "name": "getAmountOut",
      "outputs": [
        {
          "internalType": "uint256",
          "name": "amountOut",
          "type": "uint256"
        }
      ],
      "stateMutability": "view",
      "type": "function"
    },
    {
      "inputs": [],
      "name": "getPrice",
      "outputs": [
        {
          "internalType": "uint256",
          "name": "price",
          "type": "uint256"
        }
      ],
      "stateMutability": "view",
      "type": "function"
    },
    {
      "inputs": [
        {
          "internalType": "uint256",
          "name": "lpTokens",
          "type": "uint256"
        }
      ],
      "name": "removeLiquidity",
      "outputs": [
        {
          "internalType": "uint256",
          "name": "amountA",
          "type": "uint256"
        },
        {
          "internalType": "uint256",
          "name": "amountB",
          "type": "uint256"
        }
      ],
      "stateMutability": "nonpayable",
      "type": "function"
    },
    {
      "inputs": [],
      "name": "reserveA",
      "outputs": [
        {
          "internalType": "uint256",
          "name": "",
          "type": "uint256"
        }
      ],
      "stateMutability": "view",
      "type": "function"
    },
    {
      "inputs": [],
      "name": "reserveB",
      "outputs": [
        {
          "internalType": "uint256",
          "name": "",
          "type": "uint256"
        }
      ],
      "stateMutability": "view",
      "type": "function"
    },
    {
      "inputs": [
        {
          "internalType": "address",
          "name": "tokenIn",
          "type": "address"
        },
        {
          "internalType": "uint256",
          "name": "amountIn",
          "type": "uint256"
        },
        {
          "internalType": "uint256",
          "name": "minAmountOut",
          "type": "uint256"
        }
      ],
      "name": "swap",
      "outputs": [
        {
          "internalType": "uint256",
          "name": "amountOut",
          "type": "uint256"
        }
      ],
      "stateMutability": "nonpayable",
      "type": "function"
    },
    {
      "inputs": [],
      "name": "tokenA",
      "outputs": [
        {
          "internalType": "address",
          "name": "",
          "type": "address"
        }
      ],
      "stateMutability": "view",
      "type": "function"
    },
    {
      "inputs": [],
      "name": "tokenB",
      "outputs": [
        {
          "internalType": "address",
          "name": "",
          "type": "address"
        }
      ],
      "stateMutability": "view",
      "type": "function"
    },
    {
      "inputs": [],
      "name": "totalSupply",
      "outputs": [
        {
          "internalType": "uint256",
          "name": "",
          "type": "uint256"
        }
      ],
      "stateMutability": "view",
      "type": "function"
    },
    {
      "inputs": [
        {
          "internalType": "address",
          "name": "to",
          "type": "address"
        },
        {
          "internalType": "uint256",
          "name": "amount",
          "type": "uint256"
        }
      ],
      "name": "transfer",
      "outputs": [
        {
          "internalType": "bool",
          "name": "",
          "type": "bool"
        }
      ],
      "stateMutability": "nonpayable",
      "type": "function"
    },
    {
      "inputs": [
        {
          "internalType": "address",
          "name": "from",
          "type": "address"
        },
        {
          "internalType": "address",
          "name": "to",
          "type": "address"
        },
        {
          "internalType": "uint256",
          "name": "amount",
          "type": "uint256"
        }
      ],
      "name": "transferFrom",
      "outputs": [
        {
          "internalType": "bool",
          "name": "",
          "type": "bool"
        }
      ],
      "stateMutability": "nonpayable",
      "type": "function"
    }
  ],
  "bytecode": "0x608060405234801561001057600080fd5b5060405161144138038061144183398101604081905261002f916100e1565b806001600160a01b0316826001600160a01b0316036100945760405162461bcd60e51b815260206004820152601660248201527f506f6f6c3a206964656e746963616c20746f6b656e7300000000000000000000604482015260640160405180910390fd5b600080546001600160a01b039384166001600160a01b03199182161790915560018054929093169116179055610114565b80516001600160a01b03811681146100dc57600080fd5b919050565b600080604083850312156100f457600080fd5b6100fd836100c5565b915061010b602084016100c5565b90509250929050565b61131e806101236000396000f3fe608060405234801561001057600080fd5b506004361061010b5760003560e01c806398d5fdca116100a2578063a9059cbb11610071578063a9059cbb14610228578063ca706bcf1461023b578063d73792a91461024e578063dc5fa6c514610257578063dd62ed3e1461026057600080fd5b806398d5fdca146101d25780639c8f9f23146101da5780639cd441da146102025780639f1d0f591461021557600080fd5b806323b872dd116100de57806323b872dd1461018357806341cd47bf146101965780635f64b55b1461019f57806370a08231146101b257600080fd5b8063095ea7b3146101105780630fc63d101461013857806318160ddd1461016357806319e36f3b1461017a575b600080fd5b61012361011e3660046110fc565b61028b565b60405190151581526020015b60405180910390f35b60005461014b906001600160a01b031681565b6040516001600160a01b03909116815260200161012f565b61016c60045481565b60405190815260200161012f565b61016c60035481565b610123610191366004611126565b6102f8565b61016c6103e581565b60015461014b906001600160a01b031681565b61016c6101c0366004611162565b60056020526000908152604090205481565b61016c6103be565b6101ed6101e8366004611184565b610408565b6040805192835260208301919091520161012f565b61016c61021036600461119d565b610736565b61016c6102233660046111bf565b610a4a565b6101236102363660046110fc565b610e2c565b61016c6102493660046110fc565b610e42565b61016c6103e881565b61016c60025481565b61016c61026e3660046111f2565b600660209081526000928352604080842090915290825290205481565b3360008181526006602090815260408083206001600160a01b038716808552925280832085905551919290917f8c5be1e5ebec7d5bd14f71427d1e84f3dd0314c0f7b2291e5b200ac8c7c3b925906102e69086815260200190565b60405180910390a35060015b92915050565b6001600160a01b03831660009081526006602090815260408083203384529091528120548211156103705760405162461bcd60e51b815260206004820152601c60248201527f506f6f6c3a20696e73756666696369656e7420616c6c6f77616e63650000000060448201526064015b60405180910390fd5b6001600160a01b0384166000908152600660209081526040808320338452909152812080548492906103a390849061123b565b909155506103b49050848484610f5f565b5060019392505050565b600080600254116103e15760405162461bcd60e51b81526004016103679061124e565b6002546003546103f990670de0b6b3a764000061127a565b6104039190611291565b905090565b6000806000831161045b5760405162461bcd60e51b815260206004820152601a60248201527f506f6f6c3a206c70546f6b656e73206d757374206265203e20300000000000006044820152606401610367565b336000908152600560205260409020548311156104ba5760405162461bcd60e51b815260206004820152601c60248201527f506f6f6c3a20696e73756666696369656e74204c5020746f6b656e73000000006044820152606401610367565b6004546002546104ca908561127a565b6104d49190611291565b9150600454600354846104e7919061127a565b6104f19190611291565b90506000821180156105035750600081115b61055b5760405162461bcd60e51b815260206004820152602360248201527f506f6f6c3a20696e73756666696369656e74206c6971756964697479206275726044820152621b995960ea1b6064820152608401610367565b336000908152600560205260408120805485929061057a90849061123b565b925050819055508260046000828254610593919061123b565b9250508190555081600260008282546105ac919061123b565b9250508190555080600360008282546105c5919061123b565b909155505060405183815260009033907fddf252ad1be2c89b69c2b068fc378daa952ba7f163c4a11628f55a4df523b3ef9060200160405180910390a360005460405163a9059cbb60e01b8152336004820152602481018490526001600160a01b039091169063a9059cbb906044016020604051808303816000875af1158015610653573d6000803e3d6000fd5b505050506040513d601f19601f8201168201806040525081019061067791906112b3565b5060015460405163a9059cbb60e01b8152336004820152602481018390526001600160a01b039091169063a9059cbb906044016020604051808303816000875af11580156106c9573d6000803e3d6000fd5b505050506040513d601f19601f820116820180604052508101906106ed91906112b3565b50604080518381526020810183905290810184905233907f1dc8bb69df2b8e91fbdcbfcf93d951b3f0000f085a95fe3f7946d6161439245d9060600160405180910390a2915091565b600080831180156107475750600082115b6107935760405162461bcd60e51b815260206004820152601960248201527f506f6f6c3a20616d6f756e7473206d757374206265203e2030000000000000006044820152606401610367565b6000546040516323b872dd60e01b8152336004820152306024820152604481018590526001600160a01b03909116906323b872dd906064016020604051808303816000875af11580156107ea573d6000803e3d6000fd5b505050506040513d601f19601f8201168201806040525081019061080e91906112b3565b506001546040516323b872dd60e01b8152336004820152306024820152604481018490526001600160a01b03909116906323b872dd906064016020604051808303816000875af1158015610866573d6000803e3d6000fd5b505050506040513d601f19601f8201168201806040525081019061088a91906112b3565b506004546000036108ae576108a76108a2838561127a565b611075565b9050610900565b6000600254600454856108c1919061127a565b6108cb9190611291565b90506000600354600454856108e0919061127a565b6108ea9190611291565b90508082106108f957806108fb565b815b925050505b6000811161095c5760405162461bcd60e51b815260206004820152602360248201527f506f6f6c3a20696e73756666696369656e74206c6971756964697479206d696e6044820152621d195960ea1b6064820152608401610367565b826002600082825461096e91906112d5565b92505081905550816003600082825461098791906112d5565b9250508190555080600460008282546109a091906112d5565b909155505033600090815260056020526040812080548392906109c49084906112d5565b909155505060405181815233906000907fddf252ad1be2c89b69c2b068fc378daa952ba7f163c4a11628f55a4df523b3ef9060200160405180910390a3604080518481526020810184905290810182905233907f64b83944e79c3ce8d4c297411de637c3e102d064677aac0c163976ebdcd6f50e9060600160405180910390a292915050565b600080546001600160a01b0385811691161480610a7457506001546001600160a01b038581169116145b610ab65760405162461bcd60e51b81526020600482015260136024820152722837b7b61d1034b73b30b634b2103a37b5b2b760691b6044820152606401610367565b60008311610b065760405162461bcd60e51b815260206004820152601a60248201527f506f6f6c3a20616d6f756e74496e206d757374206265203e20300000000000006044820152606401610367565b6000600254118015610b1a57506000600354115b610b365760405162461bcd60e51b81526004016103679061124e565b600080546001600160a01b038681169116149081610b5f576000546001600160a01b0316610b6c565b6001546001600160a01b03165b9050600082610b7d57600354610b81565b6002545b9050600083610b9257600254610b96565b6003545b6040516323b872dd60e01b8152336004820152306024820152604481018990529091506001600160a01b038916906323b872dd906064016020604051808303816000875af1158015610bec573d6000803e3d6000fd5b505050506040513d601f19601f82011682018060405250810190610c1091906112b3565b506000610c1f6103e58961127a565b905080610c2e6103e88561127a565b610c3891906112d5565b610c42838361127a565b610c4c9190611291565b955086861015610c9e5760405162461bcd60e51b815260206004820152601760248201527f506f6f6c3a20736c6970706167652065786365656465640000000000000000006044820152606401610367565b818610610ced5760405162461bcd60e51b815260206004820152601c60248201527f506f6f6c3a20696e73756666696369656e74206c6971756964697479000000006044820152606401610367565b8415610d29578760026000828254610d0591906112d5565b925050819055508560036000828254610d1e919061123b565b90915550610d5a9050565b8760036000828254610d3b91906112d5565b925050819055508560026000828254610d54919061123b565b90915550505b60405163a9059cbb60e01b8152336004820152602481018790526001600160a01b0385169063a9059cbb906044016020604051808303816000875af1158015610da7573d6000803e3d6000fd5b505050506040513d601f19601f82011682018060405250810190610dcb91906112b3565b50604080516001600160a01b038b81168252602082018b905286168183015260608101889052905133917f5380cf97d8f645d3c4896da60c053458dca03a3a31cec642ac80e1ddf0d8d02a919081900360800190a250505050509392505050565b6000610e39338484610f5f565b50600192915050565b600080546001600160a01b0384811691161480610e6c57506001546001600160a01b038481169116145b610eae5760405162461bcd60e51b81526020600482015260136024820152722837b7b61d1034b73b30b634b2103a37b5b2b760691b6044820152606401610367565b6000600254118015610ec257506000600354115b610ede5760405162461bcd60e51b81526004016103679061124e565b600080546001600160a01b038581169116149081610efe57600354610f02565b6002545b9050600082610f1357600254610f17565b6003545b90506000610f276103e58761127a565b905080610f366103e88561127a565b610f4091906112d5565b610f4a838361127a565b610f549190611291565b979650505050505050565b6001600160a01b038316600090815260056020526040902054811115610fc75760405162461bcd60e51b815260206004820152601d60248201527f506f6f6c3a20696e73756666696369656e74204c502062616c616e63650000006044820152606401610367565b6001600160a01b03831660009081526005602052604081208054839290610fef90849061123b565b90915550506001600160a01b0382166000908152600560205260408120805483929061101c9084906112d5565b92505081905550816001600160a01b0316836001600160a01b03167fddf252ad1be2c89b69c2b068fc378daa952ba7f163c4a11628f55a4df523b3ef8360405161106891815260200190565b60405180910390a3505050565b600060038211156110d6575080600061108f600283611291565b61109a9060016112d5565b90505b818110156110d0579050806002816110b58186611291565b6110bf91906112d5565b6110c99190611291565b905061109d565b50919050565b81156110e0575060015b919050565b80356001600160a01b03811681146110e057600080fd5b6000806040838503121561110f57600080fd5b611118836110e5565b946020939093013593505050565b60008060006060848603121561113b57600080fd5b611144846110e5565b9250611152602085016110e5565b9150604084013590509250925092565b60006020828403121561117457600080fd5b61117d826110e5565b9392505050565b60006020828403121561119657600080fd5b5035919050565b600080604083850312156111b057600080fd5b50508035926020909101359150565b6000806000606084860312156111d457600080fd5b6111dd846110e5565b95602085013595506040909401359392505050565b6000806040838503121561120557600080fd5b61120e836110e5565b915061121c602084016110e5565b90509250929050565b634e487b7160e01b600052601160045260246000fd5b818103818111156102f2576102f2611225565b602080825260129082015271506f6f6c3a206e6f206c697175696469747960701b604082015260600190565b80820281158282048414176102f2576102f2611225565b6000826112ae57634e487b7160e01b600052601260045260246000fd5b500490565b6000602082840312156112c557600080fd5b8151801515811461117d57600080fd5b808201808211156102f2576102f261122556fea2646970667358221220d2c80c083316a0b03c38cadf68fe651ee75661d73ecfc022f31c993c1120244b64736f6c63430008140033",
  "linkReferences": {},
  "deployedLinkReferences": {}
}