{
  "_format": "hh-sol-artifact-1",
  "contractName": "Faucet",
  "sourceName": "contracts/Faucet.sol",
  "abi": [
    {
      "anonymous": false,
      "inputs": [
        {
          "indexed": true,
          "internalType": "address",
          "name": "user",
          "type": "address"
        },
        {
          "indexed": true,
          "internalType": "address",
          "name": "token",
          "type": "address"
        },
        {
          "indexed": false,
          "internalType": "uint256",
          "name": "amount",
          "type": "uint256"
        }
      ],
      "name": "Claimed",
      "type": "event"
    },
    {
      "inputs": [],
      "name": "CLAIM_AMOUNT",
      "outputs": [
        {
          "internalType": "uint256",
          "name": "",
          "type": "uint256"
        }
      ],
      "stateMutability": "view",
      "type": "function"
    },
    {
      "inputs": [],
      "name": "COOLDOWN",
      "outputs": [
        {
          "internalType": "uint256",
          "name": "",
          "type": "uint256"
        }
      ],
      "stateMutability": "view",
      "type": "function"
    },
    {
      "inputs": [
        {
          "internalType": "address",
          "name": "token",
          "type": "address"
        }
      ],
      "name": "claim",
      "outputs": [],
      "stateMutability": "nonpayable",
      "type": "function"
    },
    {
      "inputs": [
        {
          "internalType": "address",
          "name": "tokenA",
          "type": "address"
        },
        {
          "internalType": "address",
          "name": "tokenB",
          "type": "address"
        }
      ],
      "name": "claimBoth",
      "outputs": [],
      "stateMutability": "nonpayable",
      "type": "function"
    },
    {
      "inputs": [
        {
          "internalType": "address",
          "name": "",
          "type": "address"
        },
        {
          "internalType": "address",
          "name": "",
          "type": "address"
        }
      ],
      "name": "lastClaimed",
      "outputs": [
        {
          "internalType": "uint256",
          "name": "",
          "type": "uint256"
        }
      ],
      "stateMutability": "view",
      "type": "function"
    },
    {
      "inputs": [
        {
          "internalType": "address",
          "name": "token",
          "type": "address"
        },
        {
          "internalType": "address",
          "name": "user",
          "type": "address"
        }
      ],
      "name": "timeUntilNextClaim",
      "outputs": [
        {
          "internalType": "uint256",
          "name": "",
          "type": "uint256"
        }
      ],
      "stateMutability": "view",
      "type": "function"
    }
  ],
  "bytecode": "0x608060405234801561001057600080fd5b506103b4806100206000396000f3fe608060405234801561001057600080fd5b50600436106100625760003560e01c806305141cd0146100675780631e83409a146100a1578063270ef385146100b65780632b5c7d47146100c65780639b49c883146100d9578063a2724a4d146100ec575b600080fd5b61008f6100753660046102ed565b600060208181529281526040808220909352908152205481565b60405190815260200160405180910390f35b6100b46100af366004610320565b6100f6565b005b61008f68056bc75e2d6310000081565b61008f6100d43660046102ed565b61025e565b6100b46100e73660046102ed565b6102bb565b61008f6201518081565b6001600160a01b038116600090815260208181526040808320338452909152812054610126906201518090610358565b90508042101561018d5760405162461bcd60e51b815260206004820152602860248201527f4661756365743a20636f6f6c646f776e206163746976652c207472792061676160448201526734b7103630ba32b960c11b606482015260840160405180910390fd5b6001600160a01b0382166000818152602081815260408083203380855292529182902042905590516340c10f1960e01b8152600481019190915268056bc75e2d6310000060248201526340c10f1990604401600060405180830381600087803b1580156101f957600080fd5b505af115801561020d573d6000803e3d6000fd5b505060405168056bc75e2d6310000081526001600160a01b03851692503391507ff7a40077ff7a04c7e61f6f26fb13774259ddf1b6bce9ecf26a8276cdd39926839060200160405180910390a35050565b6001600160a01b038083166000908152602081815260408083209385168352929052908120548190610294906201518090610358565b90508042106102a75760009150506102b5565b6102b1428261036b565b9150505b92915050565b6102c4826100f6565b6102cd816100f6565b5050565b80356001600160a01b03811681146102e857600080fd5b919050565b6000806040838503121561030057600080fd5b610309836102d1565b9150610317602084016102d1565b90509250929050565b60006020828403121561033257600080fd5b61033b826102d1565b9392505050565b634e487b7160e01b600052601160045260246000fd5b808201808211156102b5576102b5610342565b818103818111156102b5576102b561034256fea2646970667358221220683243307eb01b249ef5112a89addea73808262ae0c0e3db168be994147f6e7b64736f6c63430008140033",
  "linkReferences": {},
  "deployedLinkReferences": {}
}