{
  "_format": "hh-sol-artifact-1",
  "contractName": "StakingRewards",
  "sourceName": "contracts/StakingRewards.sol",
  "abi": [
    {
      "inputs": [
        {
          "internalType": "address",
          "name": "_stakingToken",
          "type": "address"
        },
        {
          "internalType": "address",
          "name": "_rewardToken",
          "type": "address"
        }
      ],
      "stateMutability": "nonpayable",
      "type": "constructor"
    },
    {
      "anonymous": false,
      "inputs": [
        {
          "indexed": false,
          "internalType": "uint256",
          "name": "reward",
          "type": "uint256"
        },
        {
          "indexed": false,
          "internalType": "uint256",
          "name": "duration",
          "type": "uint256"
        }
      ],
      "name": "RewardAdded",
      "type": "event"
    },
    {
      "anonymous": false,
      "inputs": [
        {
          "indexed": true,
          "internalType": "address",
          "name": "user",
          "type": "address"
        },
        {
          "indexed": false,
          "internalType": "uint256",
          "name": "reward",
          "type": "uint256"
        }
      ],
      "name": "RewardPaid",
      "type": "event"
    },
    {
      "anonymous": false,
      "inputs": [
        {
          "indexed": true,
          "internalType": "address",
          "name": "user",
          "type": "address"
        },
        {
          "indexed": false,
          "internalType": "uint256",
          "name": "amount",
          "type": "uint256"
        }
      ],
      "name": "Staked",
      "type": "event"
    },
    {
      "anonymous": false,
      "inputs": [
        {
          "indexed": true,
          "internalType": "address",
          "name": "user",
          "type": "address"
        },
        {
          "indexed": false,
          "internalType": "uint256",
          "name": "amount",
          "type": "uint256"
        }
      ],
      "name": "Withdrawn",
      "type": "event"
    },
    {
      "inputs": [
        {
          "internalType": "address",
          "name": "",
          "type": "address"
        }
      ],
      "name": "balanceOf",
      "outputs": [
        {
          "internalType": "uint256",
          "name": "",
          "type": "uint256"
        }
      ],
      "stateMutability": "view",
      "type": "function"
    },
    {
      "inputs": [
        {
          "internalType": "address",
          "name": "account",
          "type": "address"
        }
      ],
      "name": "earned",
      "outputs": [
        {
          "internalType": "uint256",
          "name": "",
          "type": "uint256"
        }
      ],
      "stateMutability": "view",
      "type": "function"
    },
    {
      "inputs": [],
      "name": "exit",
      "outputs": [],
      "stateMutability": "nonpayable",
      "type": "function"
    },
    {
      "inputs": [],
      "name": "getReward",
      "outputs": [],
      "stateMutability": "nonpayable",
      "type": "function"
    },
    {
      "inputs": [],
      "name": "lastTimeRewardApplicable",
      "outputs": [
        {
          "internalType": "uint256",
          "name": "",
          "type": "uint256"
        }
      ],
      "stateMutability": "view",
      "type": "function"
    },
    {
      "inputs": [],
      "name": "lastUpdateTime",
      "outputs": [
        {
          "internalType": "uint256",
          "name": "",
          "type": "uint256"
        }
      ],
      "stateMutability": "view",
      "type": "function"
    },
    {
      "inputs": [
        {
          "internalType": "uint256",
          "name": "reward",
          "type": "uint256"
        },
        {
          "internalType": "uint256",
          "name": "duration",
          "type": "uint256"
        }
      ],
      "name": "notifyRewardAmount",
      "outputs": [],
      "stateMutability": "nonpayable",
      "type": "function"
    },
    {
      "inputs": [],
      "name": "owner",
      "outputs": [
        {
          "internalType": "address",
          "name": "",
          "type": "address"
        }
      ],
      "stateMutability": "view",
      "type": "function"
    },
    {
      "inputs": [],
      "name": "periodFinish",
      "outputs": [
        {
          "internalType": "uint256",
          "name": "",
          "type": "uint256"
        }
      ],
      "stateMutability": "view",
      "type": "function"
    },
    {
      "inputs": [],
      "name": "rewardPerToken",
      "outputs": [
        {
          "internalType": "uint256",
          "name": "",
          "type": "uint256"
        }
      ],
      "stateMutability": "view",
      "type": "function"
    },
    {
      "inputs": [],
      "name": "rewardPerTokenStored",
      "outputs": [
        {
          "internalType": "uint256",
          "name": "",
          "type": "uint256"
        }
      ],
      "stateMutability": "view",
      "type": "function"
    },
    {
      "inputs": [],
      "name": "rewardRate",
      "outputs": [
        {
          "internalType": "uint256",
          "name": "",
          "type": "uint256"
        }
      ],
      "stateMutability": "view",
      "type": "function"
    },
    {
      "inputs": [],
      "name": "rewardToken",
      "outputs": [
        {
          "internalType": "contract IERC20Like",
          "name": "",
          "type": "address"
        }
      ],
      "stateMutability": "view",
      "type": "function"
    },
    {
      "inputs": [
        {
          "internalType": "address",
          "name": "",
          "type": "address"
        }
      ],
      "name": "rewards",
      "outputs": [
        {
          "internalType": "uint256",
          "name": "",
          "type": "uint256"
        }
      ],
      "stateMutability": "view",
      "type": "function"
    },
    {
      "inputs": [
        {
          "internalType": "uint256",
          "name": "amount",
          "type": "uint256"
        }
      ],
      "name": "stake",
      "outputs": [],
      "stateMutability": "nonpayable",
      "type": "function"
    },
    {
      "inputs": [],
      "name": "stakingToken",
      "outputs": [
        {
          "internalType": "contract IERC20Like",
          "name": "",
          "type": "address"
        }
      ],
      "stateMutability": "view",
      "type": "function"
    },
    {
      "inputs": [],
      "name": "totalSupply",
      "outputs": [
        {
          "internalType": "uint256",
          "name": "",
          "type": "uint256"
        }
      ],
      "stateMutability": "view",
      "type": "function"
    },
    {
      "inputs": [
        {
          "internalType": "address",
          "name": "",
          "type": "address"
        }
      ],
      "name": "userRewardPerTokenPaid",
      "outputs": [
        {
          "internalType": "uint256",
          "name": "",
          "type": "uint256"
        }
      ],
      "stateMutability": "view",
      "type": "function"
    },
    {
      "inputs": [
        {
          "internalType": "uint256",
          "name": "amount",
          "type": "uint256"
        }
      ],
      "name": "withdraw",
      "outputs": [],
      "stateMutability": "nonpayable",
      "type": "function"
    }
  ],
  "bytecode": "0x608060405234801561001057600080fd5b50604051610c99380380610c9983398101604081905261002f91610087565b600080546001600160a01b03199081163317909155600180546001600160a01b03948516908316179055600280549290931691161790556100ba565b80516001600160a01b038116811461008257600080fd5b919050565b6000806040838503121561009a57600080fd5b6100a38361006b565b91506100b16020840161006b565b90509250929050565b610bd0806100c96000396000f3fe608060405234801561001057600080fd5b50600436106101205760003560e01c806380faa57d116100ad578063cd3daf9d11610071578063cd3daf9d1461024f578063df136d6514610257578063e9fad8ee14610260578063ebe2b12b14610268578063f7c618c11461027157600080fd5b806380faa57d146101f85780638b876347146102005780638da5cb5b14610220578063a694fc3a14610233578063c8f33c911461024657600080fd5b80632e1a7d4d116100f45780632e1a7d4d146101895780633d18b9121461019c57806370a08231146101a457806372f702f3146101c45780637b0a47ee146101ef57600080fd5b80628cc262146101255780630700037d1461014b57806318160ddd1461016b578063246132f914610174575b600080fd5b610138610133366004610a98565b610284565b6040519081526020015b60405180910390f35b610138610159366004610a98565b60086020526000908152604090205481565b61013860095481565b610187610182366004610ac8565b610301565b005b610187610197366004610aea565b61049b565b6101876106c1565b6101386101b2366004610a98565b600a6020526000908152604090205481565b6001546101d7906001600160a01b031681565b6040516001600160a01b039091168152602001610142565b61013860035481565b610138610835565b61013861020e366004610a98565b60076020526000908152604090205481565b6000546101d7906001600160a01b031681565b610187610241366004610aea565b61084e565b61013860055481565b610138610a14565b61013860065481565b610187610a75565b61013860045481565b6002546101d7906001600160a01b031681565b6001600160a01b0381166000908152600860209081526040808320546007909252822054670de0b6b3a7640000906102ba610a14565b6102c49190610b19565b6001600160a01b0385166000908152600a60205260409020546102e79190610b2c565b6102f19190610b43565b6102fb9190610b65565b92915050565b6000546001600160a01b0316331461034c5760405162461bcd60e51b81526020600482015260096024820152682737ba1037bbb732b960b91b60448201526064015b60405180910390fd5b6000610356610a14565b600655610361610835565b6005556001600160a01b038116156103a85761037c81610284565b6001600160a01b0382166000908152600860209081526040808320939093556006546007909152919020555b600082116103ef5760405162461bcd60e51b815260206004820152601460248201527306475726174696f6e206d757374206265203e20360641b6044820152606401610343565b600454421061040a576104028284610b43565b600355610449565b60004260045461041a9190610b19565b905060006003548261042c9190610b2c565b9050836104398287610b65565b6104439190610b43565b60035550505b42600581905561045a908390610b65565b60045560408051848152602081018490527f6c07ee05dcf262f13abf9d87b846ee789d2f90fe991d495acd7d7fc109ee1f55910160405180910390a1505050565b336104a4610a14565b6006556104af610835565b6005556001600160a01b038116156104f6576104ca81610284565b6001600160a01b0382166000908152600860209081526040808320939093556006546007909152919020555b6000821161053a5760405162461bcd60e51b8152602060048201526011602482015270043616e6e6f74207769746864726177203607c1b6044820152606401610343565b336000908152600a60205260409020548211156105995760405162461bcd60e51b815260206004820152601b60248201527f496e73756666696369656e74207374616b65642062616c616e636500000000006044820152606401610343565b81600960008282546105ab9190610b19565b9091555050336000908152600a6020526040812080548492906105cf908490610b19565b909155505060015460405163a9059cbb60e01b8152336004820152602481018490526001600160a01b039091169063a9059cbb906044016020604051808303816000875af1158015610625573d6000803e3d6000fd5b505050506040513d601f19601f820116820180604052508101906106499190610b78565b6106875760405162461bcd60e51b815260206004820152600f60248201526e1d1c985b9cd9995c8819985a5b1959608a1b6044820152606401610343565b60405182815233907f7084f5476618d8e60b11ef0d7d3f06914655adb8793e28ff7f018d4c76d505d5906020015b60405180910390a25050565b336106ca610a14565b6006556106d5610835565b6005556001600160a01b0381161561071c576106f081610284565b6001600160a01b0382166000908152600860209081526040808320939093556006546007909152919020555b336000908152600860205260409020548015610831573360008181526008602052604080822091909155600254905163a9059cbb60e01b81526004810192909252602482018390526001600160a01b03169063a9059cbb906044016020604051808303816000875af1158015610796573d6000803e3d6000fd5b505050506040513d601f19601f820116820180604052508101906107ba9190610b78565b6107ff5760405162461bcd60e51b81526020600482015260166024820152751c995dd85c99081d1c985b9cd9995c8819985a5b195960521b6044820152606401610343565b60405181815233907fe2403640ba68fed3a2f88b7557551d1993f84b99bb10ff833f0cf8db0c5e0486906020016106b5565b5050565b60006004544210610847575060045490565b425b905090565b33610857610a14565b600655610862610835565b6005556001600160a01b038116156108a95761087d81610284565b6001600160a01b0382166000908152600860209081526040808320939093556006546007909152919020555b600082116108ea5760405162461bcd60e51b815260206004820152600e60248201526d043616e6e6f74207374616b6520360941b6044820152606401610343565b81600960008282546108fc9190610b65565b9091555050336000908152600a602052604081208054849290610920908490610b65565b90915550506001546040516323b872dd60e01b8152336004820152306024820152604481018490526001600160a01b03909116906323b872dd906064016020604051808303816000875af115801561097c573d6000803e3d6000fd5b505050506040513d601f19601f820116820180604052508101906109a09190610b78565b6109e25760405162461bcd60e51b81526020600482015260136024820152721d1c985b9cd9995c919c9bdb4819985a5b1959606a1b6044820152606401610343565b60405182815233907f9e71bc8eea02a63969f509818f2dafb9254532904319f9dbda79b67bd34a5f3d906020016106b5565b6000600954600003610a27575060065490565b600954600354600554610a38610835565b610a429190610b19565b610a4c9190610b2c565b610a5e90670de0b6b3a7640000610b2c565b610a689190610b43565b6006546108499190610b65565b336000908152600a6020526040902054610a8e9061049b565b610a966106c1565b565b600060208284031215610aaa57600080fd5b81356001600160a01b0381168114610ac157600080fd5b9392505050565b60008060408385031215610adb57600080fd5b50508035926020909101359150565b600060208284031215610afc57600080fd5b5035919050565b634e487b7160e01b600052601160045260246000fd5b818103818111156102fb576102fb610b03565b80820281158282048414176102fb576102fb610b03565b600082610b6057634e487b7160e01b600052601260045260246000fd5b500490565b808201808211156102fb576102fb610b03565b600060208284031215610b8a57600080fd5b81518015158114610ac157600080fdfea264697066735822122082e7829e47c02cba3ce4628da36b0f5027836fea632ab248456feb71f16f1d3d64736f6c63430008140033",
  "linkReferences": {},
  "deployedLinkReferences": {}
}