{
  "_format": "hh-sol-artifact-1",
  "contractName": "SimpleLiquidityPoolV3",
  "sourceName": "contracts/SimpleLiquidityPoolV3.sol",
  "abi": [
    {
      "inputs": [
        {
          "internalType": "address",
          "name": "_tokenA",
          "type": "address"
        },
        {
          "internalType": "address",
          "name": "_tokenB",
          "type": "address"
        }
      ],
      "stateMutability": "nonpayable",
      "type": "constructor"
    },
    {
      "anonymous": false,
      "inputs": [
        {
          "indexed": true,
          "internalType": "address",
          "name": "owner",
          "type": "address"
        },
        {
          "indexed": true,
          "internalType": "address",
          "name": "spender",
          "type": "address"
        },
        {
          "indexed": false,
          "internalType": "uint256",
          "name": "amount",
          "type": "uint256"
        }
      ],
      "name": "Approval",
      "type": "event"
    },
    {
      "anonymous": false,
      "inputs": [
        {
          "indexed": true,
          "internalType": "address",
          "name": "provider",
          "type": "address"
        },
        {
          "indexed": false,
          "internalType": "uint256",
          "name": "amountA",
          "type": "uint256"
        },
        {
          "indexed": false,
          "internalType": "uint256",
          "name": "amountB",
          "type": "uint256"
        },
        {
          "indexed": false,
          "internalType": "uint256",
          "name": "lpTokensMinted",
          "type": "uint256"
        }
      ],
      "name": "LiquidityAdded",
      "type": "event"
    },
    {
      "anonymous": false,
      "inputs": [
        {
          "indexed": true,
          "internalType": "address",
          "name": "provider",
          "type": "address"
        },
        {
          "indexed": false,
          "internalType": "uint256",
          "name": "amountA",
          "type": "uint256"
        },
        {
          "indexed": false,
          "internalType": "uint256",
          "name": "amountB",
          "type": "uint256"
        },
        {
          "indexed": false,
          "internalType": "uint256",
          "name": "lpTokensBurned",
          "type": "uint256"
        }
      ],
      "name": "LiquidityRemoved",
      "type": "event"
    },
    {
      "anonymous": false,
      "inputs": [
        {
          "indexed": true,
          "internalType": "address",
          "name": "trader",
          "type": "address"
        },
        {
          "indexed": false,
          "internalType": "address",
          "name": "tokenIn",
          "type": "address"
        },
        {
          "indexed": false,
          "internalType": "uint256",
          "name": "amountIn",
          "type": "uint256"
        },
        {
          "indexed": false,
          "internalType": "address",
          "name": "tokenOut",
          "type": "address"
        },
        {
          "indexed": false,
          "internalType": "uint256",
          "name": "amountOut",
          "type": "uint256"
        }
      ],
      "name": "Swap",
      "type": "event"
    },
    {
      "anonymous": false,
      "inputs": [
        {
          "indexed": true,
          "internalType": "address",
          "name": "from",
          "type": "address"
        },
        {
          "indexed": true,
          "internalType": "address",
          "name": "to",
          "type": "address"
        },
        {
          "indexed": false,
          "internalType": "uint256",
          "name": "amount",
          "type": "uint256"
        }
      ],
      "name": "Transfer",
      "type": "event"
    },
    {
      "inputs": [],
      "name": "FEE_DENOMINATOR",
      "outputs": [
        {
          "internalType": "uint256",
          "name": "",
          "type": "uint256"
        }
      ],
      "stateMutability": "view",
      "type": "function"
    },
    {
      "inputs": [],
      "name": "FEE_NUMERATOR",
      "outputs": [
        {
          "internalType": "uint256",
          "name": "",
          "type": "uint256"
        }
      ],
      "stateMutability": "view",
      "type": "function"
    },
    {
      "inputs": [],
      "name": "MINIMUM_LIQUIDITY",
      "outputs": [
        {
          "internalType": "uint256",
          "name": "",
          "type": "uint256"
        }
      ],
      "stateMutability": "view",
      "type": "function"
    },
    {
      "inputs": [
        {
          "internalType": "uint256",
          "name": "amountA",
          "type": "uint256"
        },
        {
          "internalType": "uint256",
          "name": "amountB",
          "type": "uint256"
        }
      ],
      "name": "addLiquidity",
      "outputs": [
        {
          "internalType": "uint256",
          "name": "lpTokens",
          "type": "uint256"
        }
      ],
      "stateMutability": "nonpayable",
      "type": "function"
    },
    {
      "inputs": [
        {
          "internalType": "address",
          "name": "",
          "type": "address"
        },
        {
          "internalType": "address",
          "name": "",
          "type": "address"
        }
      ],
      "name": "allowance",
      "outputs": [
        {
          "internalType": "uint256",
          "name": "",
          "type": "uint256"
        }
      ],
      "stateMutability": "view",
      "type": "function"
    },
    {
      "inputs": [
        {
          "internalType": "address",
          "name": "spender",
          "type": "address"
        },
        {
          "internalType": "uint256",
          "name": "amount",
          "type": "uint256"
        }
      ],
      "name": "approve",
      "outputs": [
        {
          "internalType": "bool",
          "name": "",
          "type": "bool"
        }
      ],
      "stateMutability": "nonpayable",
      "type": "function"
    },
    {
      "inputs": [
        {
          "internalType": "address",
          "name": "",
          "type": "address"
        }
      ],
      "name": "balanceOf",
      "outputs": [
        {
          "internalType": "uint256",
          "name": "",
          "type": "uint256"
        }
      ],
      "stateMutability": "view",
      "type": "function"
    },
    {
      "inputs": [
        {
          "internalType": "address",
          "name": "tokenIn",
          "type": "address"
        },
        {
          "internalType": "uint256",
          "name": "amountIn",
          "type": "uint256"
        }
      ],
      "name": "getAmountOut",
      "outputs": [
        {
          "internalType": "uint256",
          "name": "amountOut",
          "type": "uint256"
        }
      ],
      "stateMutability": "view",
      "type": "function"
    },
    {
      "inputs": [],
      "name": "getPrice",
      "outputs": [
        {
          "internalType": "uint256",
          "name": "price",
          "type": "uint256"
        }
      ],
      "stateMutability": "view",
      "type": "function"
    },
    {
      "inputs": [
        {
          "internalType": "uint256",
          "name": "lpTokens",
          "type": "uint256"
        },
        {
          "internalType": "uint256",
          "name": "minAmountA",
          "type": "uint256"
        },
        {
          "internalType": "uint256",
          "name": "minAmountB",
          "type": "uint256"
        }
      ],
      "name": "removeLiquidity",
      "outputs": [
        {
          "internalType": "uint256",
          "name": "amountA",
          "type": "uint256"
        },
        {
          "internalType": "uint256",
          "name": "amountB",
          "type": "uint256"
        }
      ],
      "stateMutability": "nonpayable",
      "type": "function"
    },
    {
      "inputs": [],
      "name": "reserveA",
      "outputs": [
        {
          "internalType": "uint256",
          "name": "",
          "type": "uint256"
        }
      ],
      "stateMutability": "view",
      "type": "function"
    },
    {
      "inputs": [],
      "name": "reserveB",
      "outputs": [
        {
          "internalType": "uint256",
          "name": "",
          "type": "uint256"
        }
      ],
      "stateMutability": "view",
      "type": "function"
    },
    {
      "inputs": [
        {
          "internalType": "address",
          "name": "tokenIn",
          "type": "address"
        },
        {
          "internalType": "uint256",
          "name": "amountIn",
          "type": "uint256"
        },
        {
          "internalType": "uint256",
          "name": "minAmountOut",
          "type": "uint256"
        }
      ],
      "name": "swap",
      "outputs": [
        {
          "internalType": "uint256",
          "name": "amountOut",
          "type": "uint256"
        }
      ],
      "stateMutability": "nonpayable",
      "type": "function"
    },
    {
      "inputs": [],
      "name": "tokenA",
      "outputs": [
        {
          "internalType": "address",
          "name": "",
          "type": "address"
        }
      ],
      "stateMutability": "view",
      "type": "function"
    },
    {
      "inputs": [],
      "name": "tokenB",
      "outputs": [
        {
          "internalType": "address",
          "name": "",
          "type": "address"
        }
      ],
      "stateMutability": "view",
      "type": "function"
    },
    {
      "inputs": [],
      "name": "totalSupply",
      "outputs": [
        {
          "internalType": "uint256",
          "name": "",
          "type": "uint256"
        }
      ],
      "stateMutability": "view",
      "type": "function"
    },
    {
      "inputs": [
        {
          "internalType": "address",
          "name": "to",
          "type": "address"
        },
        {
          "internalType": "uint256",
          "name": "amount",
          "type": "uint256"
        }
      ],
      "name": "transfer",
      "outputs": [
        {
          "internalType": "bool",
          "name": "",
          "type": "bool"
        }
      ],
      "stateMutability": "nonpayable",
      "type": "function"
    },
    {
      "inputs": [
        {
          "internalType": "address",
          "name": "from",
          "type": "address"
        },
        {
          "internalType": "address",
          "name": "to",
          "type": "address"
        },
        {
          "internalType": "uint256",
          "name": "amount",
          "type": "uint256"
        }
      ],
      "name": "transferFrom",
      "outputs": [
        {
          "internalType": "bool",
          "name": "",
          "type": "bool"
        }
      ],
      "stateMutability": "nonpayable",
      "type": "function"
    }
  ],
  "bytecode": "0x608060405260016007553480156200001657600080fd5b506040516200160f3803806200160f833981016040819052620000399162000153565b806001600160a01b0316826001600160a01b031603620000a05760405162461bcd60e51b815260206004820152601660248201527f506f6f6c3a206964656e746963616c20746f6b656e730000000000000000000060448201526064015b60405180910390fd5b6001600160a01b03821615801590620000c157506001600160a01b03811615155b620001045760405162461bcd60e51b8152602060048201526012602482015271506f6f6c3a207a65726f206164647265737360701b604482015260640162000097565b600080546001600160a01b039384166001600160a01b031991821617909155600180549290931691161790556200018b565b80516001600160a01b03811681146200014e57600080fd5b919050565b600080604083850312156200016757600080fd5b620001728362000136565b9150620001826020840162000136565b90509250929050565b611474806200019b6000396000f3fe608060405234801561001057600080fd5b50600436106101165760003560e01c806398d5fdca116100a2578063ba9a7a5611610071578063ba9a7a5614610246578063ca706bcf1461024f578063d73792a914610246578063dc5fa6c514610262578063dd62ed3e1461026b57600080fd5b806398d5fdca146102055780639cd441da1461020d5780639f1d0f5914610220578063a9059cbb1461023357600080fd5b806323b872dd116100e957806323b872dd1461018e57806341cd47bf146101a15780635f64b55b146101aa57806370a08231146101bd578063857620e1146101dd57600080fd5b8063095ea7b31461011b5780630fc63d101461014357806318160ddd1461016e57806319e36f3b14610185575b600080fd5b61012e610129366004611211565b610296565b60405190151581526020015b60405180910390f35b600054610156906001600160a01b031681565b6040516001600160a01b03909116815260200161013a565b61017760045481565b60405190815260200161013a565b61017760035481565b61012e61019c36600461123b565b610303565b6101776103e581565b600154610156906001600160a01b031681565b6101776101cb366004611277565b60056020526000908152604090205481565b6101f06101eb366004611299565b6103c9565b6040805192835260208301919091520161013a565b61017761067d565b61017761021b3660046112c5565b6106c7565b61017761022e3660046112e7565b610a33565b61012e610241366004611211565b610d69565b6101776103e881565b61017761025d366004611211565b610d7f565b61017760025481565b61017761027936600461131a565b600660209081526000928352604080842090915290825290205481565b3360008181526006602090815260408083206001600160a01b038716808552925280832085905551919290917f8c5be1e5ebec7d5bd14f71427d1e84f3dd0314c0f7b2291e5b200ac8c7c3b925906102f19086815260200190565b60405180910390a35060015b92915050565b6001600160a01b038316600090815260066020908152604080832033845290915281205482111561037b5760405162461bcd60e51b815260206004820152601c60248201527f506f6f6c3a20696e73756666696369656e7420616c6c6f77616e63650000000060448201526064015b60405180910390fd5b6001600160a01b0384166000908152600660209081526040808320338452909152812080548492906103ae908490611363565b909155506103bf9050848484610e9c565b5060019392505050565b6000806007546001146103ee5760405162461bcd60e51b815260040161037290611376565b6002600755846104405760405162461bcd60e51b815260206004820152601a60248201527f506f6f6c3a206c70546f6b656e73206d757374206265203e20300000000000006044820152606401610372565b336000908152600560205260409020548511156104975760405162461bcd60e51b81526020600482015260156024820152740506f6f6c3a20696e73756666696369656e74204c5605c1b6044820152606401610372565b6004546002546104a790876113a4565b6104b191906113bb565b9150600454600354866104c491906113a4565b6104ce91906113bb565b90506000821180156104e05750600081115b6105385760405162461bcd60e51b815260206004820152602360248201527f506f6f6c3a20696e73756666696369656e74206c6971756964697479206275726044820152621b995960ea1b6064820152608401610372565b8382101580156105485750828110155b61058e5760405162461bcd60e51b8152602060048201526017602482015276141bdbdb0e881cdb1a5c1c1859d948195e18d959591959604a1b6044820152606401610372565b33600090815260056020526040812080548792906105ad908490611363565b9250508190555084600460008282546105c69190611363565b9250508190555081600260008282546105df9190611363565b9250508190555080600360008282546105f89190611363565b9091555050604080518381526020810183905290810186905233907f1dc8bb69df2b8e91fbdcbfcf93d951b3f0000f085a95fe3f7946d6161439245d9060600160405180910390a2600054610657906001600160a01b03163384611001565b60015461066e906001600160a01b03163383611001565b60016007559094909350915050565b600080600254116106a05760405162461bcd60e51b8152600401610372906113dd565b6002546003546106b890670de0b6b3a76400006113a4565b6106c291906113bb565b905090565b60006007546001146106eb5760405162461bcd60e51b815260040161037290611376565b600260075582158015906106ff5750600082115b61074b5760405162461bcd60e51b815260206004820152601960248201527f506f6f6c3a20616d6f756e7473206d757374206265203e2030000000000000006044820152606401610372565b6004548390839060000361084057600061076d61076886886113a4565b6110bd565b90506103e881116107cb5760405162461bcd60e51b815260206004820152602260248201527f506f6f6c3a20696e73756666696369656e74206669727374206c697175696469604482015261747960f01b6064820152608401610372565b6107d76103e882611363565b600080805260056020527f05b8ccbb9d4d8fb16ea74ce3c29a41f1b461fbdaff4714a0d9a8eb05499746bc80549296506103e892909190610819908490611409565b925050819055506103e8600460008282546108349190611409565b909155506108e8915050565b60006002546003548761085391906113a4565b61085d91906113bb565b905084811161087157859250809150610895565b60006003546002548761088491906113a4565b61088e91906113bb565b9350859250505b6000600254600454856108a891906113a4565b6108b291906113bb565b90506000600354600454856108c791906113a4565b6108d191906113bb565b90508082106108e057806108e2565b815b95505050505b600083116109445760405162461bcd60e51b815260206004820152602360248201527f506f6f6c3a20696e73756666696369656e74206c6971756964697479206d696e6044820152621d195960ea1b6064820152608401610372565b60005461095c906001600160a01b031633308561112d565b600154610974906001600160a01b031633308461112d565b3360009081526005602052604081208054859290610993908490611409565b9250508190555082600460008282546109ac9190611409565b9250508190555081600260008282546109c59190611409565b9250508190555080600360008282546109de9190611409565b9091555050604080518381526020810183905290810184905233907f64b83944e79c3ce8d4c297411de637c3e102d064677aac0c163976ebdcd6f50e9060600160405180910390a25050600160075592915050565b6000600754600114610a575760405162461bcd60e51b815260040161037290611376565b60026007556000546001600160a01b0385811691161480610a8557506001546001600160a01b038581169116145b610ac75760405162461bcd60e51b81526020600482015260136024820152722837b7b61d1034b73b30b634b2103a37b5b2b760691b6044820152606401610372565b60008311610b175760405162461bcd60e51b815260206004820152601a60248201527f506f6f6c3a20616d6f756e74496e206d757374206265203e20300000000000006044820152606401610372565b6000600254118015610b2b57506000600354115b610b475760405162461bcd60e51b8152600401610372906113dd565b600080546001600160a01b038681169116149081610b70576000546001600160a01b0316610b7d565b6001546001600160a01b03165b9050600082610b8e57600354610b92565b6002545b9050600083610ba357600254610ba7565b6003545b90506000610bb76103e5896113a4565b905080610bc66103e8856113a4565b610bd09190611409565b610bda83836113a4565b610be491906113bb565b955086861015610c305760405162461bcd60e51b8152602060048201526017602482015276141bdbdb0e881cdb1a5c1c1859d948195e18d959591959604a1b6044820152606401610372565b818610610c7f5760405162461bcd60e51b815260206004820152601c60248201527f506f6f6c3a20696e73756666696369656e74206c6971756964697479000000006044820152606401610372565b8415610cbb578760026000828254610c979190611409565b925050819055508560036000828254610cb09190611363565b90915550610cec9050565b8760036000828254610ccd9190611409565b925050819055508560026000828254610ce69190611363565b90915550505b610cf88933308b61112d565b610d03843388611001565b604080516001600160a01b038b81168252602082018b905286168183015260608101889052905133917f5380cf97d8f645d3c4896da60c053458dca03a3a31cec642ac80e1ddf0d8d02a919081900360800190a250506001600755509195945050505050565b6000610d76338484610e9c565b50600192915050565b600080546001600160a01b0384811691161480610da957506001546001600160a01b038481169116145b610deb5760405162461bcd60e51b81526020600482015260136024820152722837b7b61d1034b73b30b634b2103a37b5b2b760691b6044820152606401610372565b6000600254118015610dff57506000600354115b610e1b5760405162461bcd60e51b8152600401610372906113dd565b600080546001600160a01b038581169116149081610e3b57600354610e3f565b6002545b9050600082610e5057600254610e54565b6003545b90506000610e646103e5876113a4565b905080610e736103e8856113a4565b610e7d9190611409565b610e8783836113a4565b610e9191906113bb565b979650505050505050565b6001600160a01b038216610eeb5760405162461bcd60e51b8152602060048201526016602482015275506f6f6c3a207472616e7366657220746f207a65726f60501b6044820152606401610372565b6001600160a01b038316600090815260056020526040902054811115610f535760405162461bcd60e51b815260206004820152601d60248201527f506f6f6c3a20696e73756666696369656e74204c502062616c616e63650000006044820152606401610372565b6001600160a01b03831660009081526005602052604081208054839290610f7b908490611363565b90915550506001600160a01b03821660009081526005602052604081208054839290610fa8908490611409565b92505081905550816001600160a01b0316836001600160a01b03167fddf252ad1be2c89b69c2b068fc378daa952ba7f163c4a11628f55a4df523b3ef83604051610ff491815260200190565b60405180910390a3505050565b60405163a9059cbb60e01b81526001600160a01b0383811660048301526024820183905284169063a9059cbb906044016020604051808303816000875af1158015611050573d6000803e3d6000fd5b505050506040513d601f19601f82011682018060405250810190611074919061141c565b6110b85760405162461bcd60e51b8152602060048201526015602482015274141bdbdb0e881d1c985b9cd9995c8819985a5b1959605a1b6044820152606401610372565b505050565b6000600382111561111e57508060006110d76002836113bb565b6110e2906001611409565b90505b81811015611118579050806002816110fd81866113bb565b6111079190611409565b61111191906113bb565b90506110e5565b50919050565b8115611128575060015b919050565b6040516323b872dd60e01b81526001600160a01b0384811660048301528381166024830152604482018390528516906323b872dd906064016020604051808303816000875af1158015611184573d6000803e3d6000fd5b505050506040513d601f19601f820116820180604052508101906111a8919061141c565b6111f45760405162461bcd60e51b815260206004820152601960248201527f506f6f6c3a207472616e7366657246726f6d206661696c6564000000000000006044820152606401610372565b50505050565b80356001600160a01b038116811461112857600080fd5b6000806040838503121561122457600080fd5b61122d836111fa565b946020939093013593505050565b60008060006060848603121561125057600080fd5b611259846111fa565b9250611267602085016111fa565b9150604084013590509250925092565b60006020828403121561128957600080fd5b611292826111fa565b9392505050565b6000806000606084860312156112ae57600080fd5b505081359360208301359350604090920135919050565b600080604083850312156112d857600080fd5b50508035926020909101359150565b6000806000606084860312156112fc57600080fd5b611305846111fa565b95602085013595506040909401359392505050565b6000806040838503121561132d57600080fd5b611336836111fa565b9150611344602084016111fa565b90509250929050565b634e487b7160e01b600052601160045260246000fd5b818103818111156102fd576102fd61134d565b602080825260149082015273141bdbdb0e881c99595b9d1c985b9d0818d85b1b60621b604082015260600190565b80820281158282048414176102fd576102fd61134d565b6000826113d857634e487b7160e01b600052601260045260246000fd5b500490565b602080825260129082015271506f6f6c3a206e6f206c697175696469747960701b604082015260600190565b808201808211156102fd576102fd61134d565b60006020828403121561142e57600080fd5b8151801515811461129257600080fdfea2646970667358221220da12b81976a457ef564033433eceeac8031a5ad1169705772bf940e1264d79c564736f6c63430008140033",
  "linkReferences": {},
  "deployedLinkReferences": {}
}